{
  "transactions": [
    {
      "hash": "0x16bb7b13e8e1e5e8023665c31977cd54825d89ef7c1b5e2d26de5ba2513e1ae4",
      "transactionType": "CALL",
      "contractName": null,
      "contractAddress": "0x131d1ddf1ab7152fea467216674cfbe6b840c19c",
      "function": "registerPolicy(bytes32,uint256,uint256,uint256,address)",
      "arguments": [
        "0x2df80a1d8746336d2e3d3123473be0d79695fcb01f6c11ea567337041902540a",
        "1704067200",
        "1735689600",
        "500000000",
        "0x7FBbE68068A3Aa7E479A1E51e792F4C2073b018f"
      ],
      "transaction": {
        "from": "0x7fbbe68068a3aa7e479a1e51e792f4c2073b018f",
        "to": "0x131d1ddf1ab7152fea467216674cfbe6b840c19c",
        "gas": "0x2e1f9",
        "value": "0x0",
        "input": "0x08c6afbe2df80a1d8746336d2e3d3123473be0d79695fcb01f6c11ea567337041902540a00000000000000000000000000000000000000000000000000000000659200800000000000000000000000000000000000000000000000000000000067748580000000000000000000000000000000000000000000000000000000001dcd65000000000000000000000000007fbbe68068a3aa7e479a1e51e792f4c2073b018f",
        "nonce": "0x2d",
        "chainId": "0x989075"
      },
      "additionalContracts": [],
      "isFixedGasLimit": false
    },
    {
      "hash": "0x00c6f5009e281fc787f875ba8824a447310a746c552f8335e661743b18798e3f",
      "transactionType": "CALL",
      "contractName": null,
      "contractAddress": "0x131d1ddf1ab7152fea467216674cfbe6b840c19c",
      "function": "payPremium(bytes32)",
      "arguments": [
        "0x2df80a1d8746336d2e3d3123473be0d79695fcb01f6c11ea567337041902540a"
      ],
      "transaction": {
        "from": "0x7fbbe68068a3aa7e479a1e51e792f4c2073b018f",
        "to": "0x131d1ddf1ab7152fea467216674cfbe6b840c19c",
        "gas": "0xc2ef",
        "value": "0x2386f26fc10000",
        "input": "0xd8e2d2ba2df80a1d8746336d2e3d3123473be0d79695fcb01f6c11ea567337041902540a",
        "nonce": "0x2e",
        "chainId": "0x989075"
      },
      "additionalContracts": [],
      "isFixedGasLimit": false
    },
    {
      "hash": "0x7405028718145d7f97aefdabcfb641e156ae29219108d1505a4b4404e96adad3",
      "transactionType": "CALL",
      "contractName": null,
      "contractAddress": "0x833589fcd6edb6e08f4c7c32d4f71b54bda02913",
      "function": "approve(address,uint256)",
      "arguments": [
        "0x0C838e465330d14E23bbc63E7028007C519017FA",
        "10000000000"
      ],
      "transaction": {
        "from": "0x7fbbe68068a3aa7e479a1e51e792f4c2073b018f",
        "to": "0x833589fcd6edb6e08f4c7c32d4f71b54bda02913",
        "gas": "0x12b1b",
        "value": "0x0",
        "input": "0x095ea7b30000000000000000000000000c838e465330d14e23bbc63e7028007c519017fa00000000000000000000000000000000000000000000000000000002540be400",
        "nonce": "0x2f",
        "chainId": "0x989075"
      },
      "additionalContracts": [],
      "isFixedGasLimit": false
    },
    {
      "hash": "0xccf8cf7540df3676a58248cc0e1d87a67985b64c6889ce950e9bbffee3db41f4",
      "transactionType": "CALL",
      "contractName": null,
      "contractAddress": "0x0c838e465330d14e23bbc63e7028007c519017fa",
      "function": "depositLiquidity(uint256)",
      "arguments": [
        "10000000000"
      ],
      "transaction": {
        "from": "0x7fbbe68068a3aa7e479a1e51e792f4c2073b018f",
        "to": "0x0c838e465330d14e23bbc63e7028007c519017fa",
        "gas": "0x16cae",
        "value": "0x0",
        "input": "0x76d58e1a00000000000000000000000000000000000000000000000000000002540be400",
        "nonce": "0x30",
        "chainId": "0x989075"
      },
      "additionalContracts": [],
      "isFixedGasLimit": false
    }
  ],
  "receipts": [
    {
      "status": "0x1",
      "cumulativeGasUsed": "0xd88d",
      "logs": [
        {
          "address": "0x833589fcd6edb6e08f4c7c32d4f71b54bda02913",
          "topics": [
            "0x8c5be1e5ebec7d5bd14f71427d1e84f3dd0314c0f7b2291e5b200ac8c7c3b925",
            "0x0000000000000000000000007fbbe68068a3aa7e479a1e51e792f4c2073b018f",
            "0x0000000000000000000000000c838e465330d14e23bbc63e7028007c519017fa"
          ],
          "data": "0x00000000000000000000000000000000000000000000000000000002540be400",
          "blockHash": "0x601fbda2696073ac2cc23b2760d5ee443024e2842c4d0e35f8b8d964c0ad07fe",
          "blockNumber": "0x28ecd81",
          "transactionHash": "0x16bb7b13e8e1e5e8023665c31977cd54825d89ef7c1b5e2d26de5ba2513e1ae4",
          "transactionIndex": "0x0",
          "logIndex": "0x0",
          "removed": false
        }
      ],
      "logsBloom": "0x00000000000000000000000000000000000000000000000000000000000000040000000000000000000000000000100000000000000000000000000000200000000000000000000000000000020008000000000000080000000000000040000000800000000000000000000000000000000000000000000000000000000000000000000000000000000000000000000000000000000000000000000000000000020000000000000000000000000000000000000000000000000000000000000000000000000000000002000000000000000000000000000000000000000000000010000000000000000000000000000000000000000000000000000000000020",
      "type": "0x2",
      "transactionHash": "0x16bb7b13e8e1e5e8023665c31977cd54825d89ef7c1b5e2d26de5ba2513e1ae4",
      "transactionIndex": "0x0",
      "blockHash": "0x601fbda2696073ac2cc23b2760d5ee443024e2842c4d0e35f8b8d964c0ad07fe",
      "blockNumber": "0x28ecd81",
      "gasUsed": "0xd88d",
      "effectiveGasPrice": "0xf3e0e",
      "blobGasUsed": "0x0",
      "from": "0x7fbbe68068a3aa7e479a1e51e792f4c2073b018f",
      "to": "0x833589fcd6edb6e08f4c7c32d4f71b54bda02913",
      "contractAddress": null
    },
    {
      "status": "0x1",
      "cumulativeGasUsed": "0x21648",
      "logs": [
        {
          "address": "0x131d1ddf1ab7152fea467216674cfbe6b840c19c",
          "topics": [
            "0x06d3f96554bf58a9bcb7c0ab9ad161c9324c2aa1fe5bba413e54ae79fb022623",
            "0x2df80a1d8746336d2e3d3123473be0d79695fcb01f6c11ea567337041902540a",
            "0x0000000000000000000000007fbbe68068a3aa7e479a1e51e792f4c2073b018f",
            "0x0000000000000000000000007fbbe68068a3aa7e479a1e51e792f4c2073b018f"
          ],
          "data": "0x",
          "blockHash": "0x17013a46100d24ecb2b9b674b3665a44a53a7cd78ae40065ce1f2be0cab69863",
          "blockNumber": "0x28ecd83",
          "transactionHash": "0x7405028718145d7f97aefdabcfb641e156ae29219108d1505a4b4404e96adad3",
          "transactionIndex": "0x0",
          "logIndex": "0x0",
          "removed": false
        }
      ],
      "logsBloom": "0x00000000000000000000000000000000000000000000002000000000000000000000000000000000000000000040000000000000000000000000000000000000000000000000000000000000000000000000000020000000000000000040000000000000000000000000000000000000000000000000000000000000000000004000000000000000000000000000000000000000000000000000000000000000000000000000000000000000000000900000000000000000000000004000000000000000000000000002000000000000000000000000000000000000000000000000000000000000000001000000000000000040000000000000000000000020",
      "type": "0x2",
      "transactionHash": "0x7405028718145d7f97aefdabcfb641e156ae29219108d1505a4b4404e96adad3",
      "transactionIndex": "0x0",
      "blockHash": "0x17013a46100d24ecb2b9b674b3665a44a53a7cd78ae40065ce1f2be0cab69863",
      "blockNumber": "0x28ecd83",
      "gasUsed": "0x21648",
      "effectiveGasPrice": "0xf3e0e",
      "blobGasUsed": "0x0",
      "from": "0x7fbbe68068a3aa7e479a1e51e792f4c2073b018f",
      "to": "0x131d1ddf1ab7152fea467216674cfbe6b840c19c",
      "contractAddress": null
    },
    {
      "status": "0x1",
      "cumulativeGasUsed": "0x10806",
      "logs": [
        {
          "address": "0x833589fcd6edb6e08f4c7c32d4f71b54bda02913",
          "topics": [
            "0xddf252ad1be2c89b69c2b068fc378daa952ba7f163c4a11628f55a4df523b3ef",
            "0x0000000000000000000000007fbbe68068a3aa7e479a1e51e792f4c2073b018f",
            "0x0000000000000000000000000c838e465330d14e23bbc63e7028007c519017fa"
          ],
          "data": "0x00000000000000000000000000000000000000000000000000000002540be400",
          "blockHash": "0xf37c2757bcfcea3c00a0f3c0121c63d6811e39ae624c887e9eda1578eb924d98",
          "blockNumber": "0x28ecd84",
          "transactionHash": "0xccf8cf7540df3676a58248cc0e1d87a67985b64c6889ce950e9bbffee3db41f4",
          "transactionIndex": "0x0",
          "logIndex": "0x0",
          "removed": false
        },
        {
          "address": "0x0c838e465330d14e23bbc63e7028007c519017fa",
          "topics": [
            "0x7ff07ce9a287649537e4b012e45cf012d90228b12e2b56bb03515a6b5436fcdf",
            "0x0000000000000000000000007fbbe68068a3aa7e479a1e51e792f4c2073b018f"
          ],
          "data": "0x00000000000000000000000000000000000000000000000000000002540be400",
          "blockHash": "0xf37c2757bcfcea3c00a0f3c0121c63d6811e39ae624c887e9eda1578eb924d98",
          "blockNumber": "0x28ecd84",
          "transactionHash": "0xccf8cf7540df3676a58248cc0e1d87a67985b64c6889ce950e9bbffee3db41f4",
          "transactionIndex": "0x0",
          "logIndex": "0x1",
          "removed": false
        }
      ],
      "logsBloom": "0x000000000000000000000000000000000000000000000000000000000000000400000000000000000020000000001000000000000000000000000000000000000000000000000000000000080200080000000000000800000000008000400000008040000000000000000000000000000000000000000000000000100000000000000000000000000000000000000000000000000000000000000004000000000000000000000000000000000000000000000000000000000000000000000000000000020000000000020000000000000000000000000000000000000000000000000000000000000000000010000000000000000000000000000000000000a0",
      "type": "0x2",
      "transactionHash": "0xccf8cf7540df3676a58248cc0e1d87a67985b64c6889ce950e9bbffee3db41f4",
      "transactionIndex": "0x0",
      "blockHash": "0xf37c2757bcfcea3c00a0f3c0121c63d6811e39ae624c887e9eda1578eb924d98",
      "blockNumber": "0x28ecd84",
      "gasUsed": "0x10806",
      "effectiveGasPrice": "0xf3e0e",
      "blobGasUsed": "0x0",
      "from": "0x7fbbe68068a3aa7e479a1e51e792f4c2073b018f",
      "to": "0x0c838e465330d14e23bbc63e7028007c519017fa",
      "contractAddress": null
    }
  ],
  "libraries": [],
  "pending": [],
  "returns": {},
  "timestamp": 1772616635623,
  "chain": 9998453,
  "commit": "4299b2a"
}