{
  "transactions": [
    {
      "hash": "0x54cfa334b8f1b663bd2712219ada403463aee6883829e4247d8db5a15d7ea395",
      "transactionType": "CALL",
      "contractName": null,
      "contractAddress": "0x8998151a1ee905efd20189a89a6910c4a0d2decb",
      "function": "registerPolicy(bytes32,uint256,uint256,uint256,address)",
      "arguments": [
        "0x6520458b8405896a2fd67205afc0b797a4d4feaacce10b73ac946167e91ea7f9",
        "1704067200",
        "1735689600",
        "500000000",
        "0x7FBbE68068A3Aa7E479A1E51e792F4C2073b018f"
      ],
      "transaction": {
        "from": "0x7fbbe68068a3aa7e479a1e51e792f4c2073b018f",
        "to": "0x8998151a1ee905efd20189a89a6910c4a0d2decb",
        "gas": "0x2e1f9",
        "value": "0x0",
        "input": "0x08c6afbe6520458b8405896a2fd67205afc0b797a4d4feaacce10b73ac946167e91ea7f900000000000000000000000000000000000000000000000000000000659200800000000000000000000000000000000000000000000000000000000067748580000000000000000000000000000000000000000000000000000000001dcd65000000000000000000000000007fbbe68068a3aa7e479a1e51e792f4c2073b018f",
        "nonce": "0xa1",
        "chainId": "0x989075"
      },
      "additionalContracts": [],
      "isFixedGasLimit": false
    },
    {
      "hash": "0x8c1c71b6d5d86a0eb9c5312cc51188934b6ffed8b00e0bf56ec7c385e9abc66d",
      "transactionType": "CALL",
      "contractName": null,
      "contractAddress": "0x8998151a1ee905efd20189a89a6910c4a0d2decb",
      "function": "payPremium(bytes32)",
      "arguments": [
        "0x6520458b8405896a2fd67205afc0b797a4d4feaacce10b73ac946167e91ea7f9"
      ],
      "transaction": {
        "from": "0x7fbbe68068a3aa7e479a1e51e792f4c2073b018f",
        "to": "0x8998151a1ee905efd20189a89a6910c4a0d2decb",
        "gas": "0xc2ef",
        "value": "0x2386f26fc10000",
        "input": "0xd8e2d2ba6520458b8405896a2fd67205afc0b797a4d4feaacce10b73ac946167e91ea7f9",
        "nonce": "0xa2",
        "chainId": "0x989075"
      },
      "additionalContracts": [],
      "isFixedGasLimit": false
    },
    {
      "hash": "0xcc0c751ae2f873b5c02357709cf8de01c440fc5dcfe209a831380ebe230c84fb",
      "transactionType": "CALL",
      "contractName": null,
      "contractAddress": "0x8998151a1ee905efd20189a89a6910c4a0d2decb",
      "function": "registerPolicy(bytes32,uint256,uint256,uint256,address)",
      "arguments": [
        "0x5e5b75c527cfa9c118c5e75ef3992f32f2b5eb2521a6d5ad487678757e8f9842",
        "1704067200",
        "1735689600",
        "500000000",
        "0x7FBbE68068A3Aa7E479A1E51e792F4C2073b018f"
      ],
      "transaction": {
        "from": "0x7fbbe68068a3aa7e479a1e51e792f4c2073b018f",
        "to": "0x8998151a1ee905efd20189a89a6910c4a0d2decb",
        "gas": "0x2e1f9",
        "value": "0x0",
        "input": "0x08c6afbe5e5b75c527cfa9c118c5e75ef3992f32f2b5eb2521a6d5ad487678757e8f984200000000000000000000000000000000000000000000000000000000659200800000000000000000000000000000000000000000000000000000000067748580000000000000000000000000000000000000000000000000000000001dcd65000000000000000000000000007fbbe68068a3aa7e479a1e51e792f4c2073b018f",
        "nonce": "0xa3",
        "chainId": "0x989075"
      },
      "additionalContracts": [],
      "isFixedGasLimit": false
    },
    {
      "hash": "0x8448dcf4a5170163a6936a3151adbeb9c76290e068211b15c6ff58e21d6c658e",
      "transactionType": "CALL",
      "contractName": null,
      "contractAddress": "0x8998151a1ee905efd20189a89a6910c4a0d2decb",
      "function": "payPremium(bytes32)",
      "arguments": [
        "0x5e5b75c527cfa9c118c5e75ef3992f32f2b5eb2521a6d5ad487678757e8f9842"
      ],
      "transaction": {
        "from": "0x7fbbe68068a3aa7e479a1e51e792f4c2073b018f",
        "to": "0x8998151a1ee905efd20189a89a6910c4a0d2decb",
        "gas": "0xc2ef",
        "value": "0x2386f26fc10000",
        "input": "0xd8e2d2ba5e5b75c527cfa9c118c5e75ef3992f32f2b5eb2521a6d5ad487678757e8f9842",
        "nonce": "0xa4",
        "chainId": "0x989075"
      },
      "additionalContracts": [],
      "isFixedGasLimit": false
    },
    {
      "hash": "0x7d2c8596bdabea366afd0ec4c7fb61c1be91837efe0f8eef25f91b9bf6e167c3",
      "transactionType": "CALL",
      "contractName": null,
      "contractAddress": "0x8998151a1ee905efd20189a89a6910c4a0d2decb",
      "function": "registerPolicy(bytes32,uint256,uint256,uint256,address)",
      "arguments": [
        "0xe46939b087f17eb76748523c42e8e6da99acfbda1bda46e82038abfc93397b3e",
        "1704067200",
        "1735689600",
        "500000000",
        "0x7FBbE68068A3Aa7E479A1E51e792F4C2073b018f"
      ],
      "transaction": {
        "from": "0x7fbbe68068a3aa7e479a1e51e792f4c2073b018f",
        "to": "0x8998151a1ee905efd20189a89a6910c4a0d2decb",
        "gas": "0x2e1f9",
        "value": "0x0",
        "input": "0x08c6afbee46939b087f17eb76748523c42e8e6da99acfbda1bda46e82038abfc93397b3e00000000000000000000000000000000000000000000000000000000659200800000000000000000000000000000000000000000000000000000000067748580000000000000000000000000000000000000000000000000000000001dcd65000000000000000000000000007fbbe68068a3aa7e479a1e51e792f4c2073b018f",
        "nonce": "0xa5",
        "chainId": "0x989075"
      },
      "additionalContracts": [],
      "isFixedGasLimit": false
    },
    {
      "hash": "0xb9b06ee2d998cc6cf6dcffdbafd9ad63fbfcf3bcd830eebed4b01ea448ba8693",
      "transactionType": "CALL",
      "contractName": null,
      "contractAddress": "0x8998151a1ee905efd20189a89a6910c4a0d2decb",
      "function": "payPremium(bytes32)",
      "arguments": [
        "0xe46939b087f17eb76748523c42e8e6da99acfbda1bda46e82038abfc93397b3e"
      ],
      "transaction": {
        "from": "0x7fbbe68068a3aa7e479a1e51e792f4c2073b018f",
        "to": "0x8998151a1ee905efd20189a89a6910c4a0d2decb",
        "gas": "0xc2ef",
        "value": "0x2386f26fc10000",
        "input": "0xd8e2d2bae46939b087f17eb76748523c42e8e6da99acfbda1bda46e82038abfc93397b3e",
        "nonce": "0xa6",
        "chainId": "0x989075"
      },
      "additionalContracts": [],
      "isFixedGasLimit": false
    },
    {
      "hash": "0x29c573c6243b7f5de60516a2e5f27db783ff46c342b1d856b035fe2a6bbddd1a",
      "transactionType": "CALL",
      "contractName": null,
      "contractAddress": "0x8998151a1ee905efd20189a89a6910c4a0d2decb",
      "function": "registerPolicy(bytes32,uint256,uint256,uint256,address)",
      "arguments": [
        "0x108e036bfd375855213c93c12aa20bb1014f6a16a5d8e3921d138e7634041e57",
        "1704067200",
        "1735689600",
        "500000000",
        "0x7FBbE68068A3Aa7E479A1E51e792F4C2073b018f"
      ],
      "transaction": {
        "from": "0x7fbbe68068a3aa7e479a1e51e792f4c2073b018f",
        "to": "0x8998151a1ee905efd20189a89a6910c4a0d2decb",
        "gas": "0x2e1f9",
        "value": "0x0",
        "input": "0x08c6afbe108e036bfd375855213c93c12aa20bb1014f6a16a5d8e3921d138e7634041e5700000000000000000000000000000000000000000000000000000000659200800000000000000000000000000000000000000000000000000000000067748580000000000000000000000000000000000000000000000000000000001dcd65000000000000000000000000007fbbe68068a3aa7e479a1e51e792f4c2073b018f",
        "nonce": "0xa7",
        "chainId": "0x989075"
      },
      "additionalContracts": [],
      "isFixedGasLimit": false
    },
    {
      "hash": "0x74653f902b0d6201159d3b57d4fa4f0b49b9f5ef25b8694e9b7055f27c1c8e1f",
      "transactionType": "CALL",
      "contractName": null,
      "contractAddress": "0x8998151a1ee905efd20189a89a6910c4a0d2decb",
      "function": "payPremium(bytes32)",
      "arguments": [
        "0x108e036bfd375855213c93c12aa20bb1014f6a16a5d8e3921d138e7634041e57"
      ],
      "transaction": {
        "from": "0x7fbbe68068a3aa7e479a1e51e792f4c2073b018f",
        "to": "0x8998151a1ee905efd20189a89a6910c4a0d2decb",
        "gas": "0xc2ef",
        "value": "0x2386f26fc10000",
        "input": "0xd8e2d2ba108e036bfd375855213c93c12aa20bb1014f6a16a5d8e3921d138e7634041e57",
        "nonce": "0xa8",
        "chainId": "0x989075"
      },
      "additionalContracts": [],
      "isFixedGasLimit": false
    },
    {
      "hash": "0xcdb52a1be906b80ff94013ba2fe417c2a8118c29cbb21514f04c99a15d0bdd95",
      "transactionType": "CALL",
      "contractName": null,
      "contractAddress": "0x8998151a1ee905efd20189a89a6910c4a0d2decb",
      "function": "registerPolicy(bytes32,uint256,uint256,uint256,address)",
      "arguments": [
        "0xf74971c7cdd014c5fe5a08c75b1e833b5181463e74dde591553c6ab9fa48c09d",
        "1704067200",
        "1735689600",
        "500000000",
        "0x7FBbE68068A3Aa7E479A1E51e792F4C2073b018f"
      ],
      "transaction": {
        "from": "0x7fbbe68068a3aa7e479a1e51e792f4c2073b018f",
        "to": "0x8998151a1ee905efd20189a89a6910c4a0d2decb",
        "gas": "0x2e1f9",
        "value": "0x0",
        "input": "0x08c6afbef74971c7cdd014c5fe5a08c75b1e833b5181463e74dde591553c6ab9fa48c09d00000000000000000000000000000000000000000000000000000000659200800000000000000000000000000000000000000000000000000000000067748580000000000000000000000000000000000000000000000000000000001dcd65000000000000000000000000007fbbe68068a3aa7e479a1e51e792f4c2073b018f",
        "nonce": "0xa9",
        "chainId": "0x989075"
      },
      "additionalContracts": [],
      "isFixedGasLimit": false
    },
    {
      "hash": "0x35ea9851a59d215c7fd91e0f1172dc67ee996a03916305569f6e82eb93689ed8",
      "transactionType": "CALL",
      "contractName": null,
      "contractAddress": "0x8998151a1ee905efd20189a89a6910c4a0d2decb",
      "function": "payPremium(bytes32)",
      "arguments": [
        "0xf74971c7cdd014c5fe5a08c75b1e833b5181463e74dde591553c6ab9fa48c09d"
      ],
      "transaction": {
        "from": "0x7fbbe68068a3aa7e479a1e51e792f4c2073b018f",
        "to": "0x8998151a1ee905efd20189a89a6910c4a0d2decb",
        "gas": "0xc2ef",
        "value": "0x2386f26fc10000",
        "input": "0xd8e2d2baf74971c7cdd014c5fe5a08c75b1e833b5181463e74dde591553c6ab9fa48c09d",
        "nonce": "0xaa",
        "chainId": "0x989075"
      },
      "additionalContracts": [],
      "isFixedGasLimit": false
    },
    {
      "hash": "0xa1f6aaa29b962f6c3b6f4a5bf2b027303326ba0e2764f6cd043fb544e1b07862",
      "transactionType": "CALL",
      "contractName": null,
      "contractAddress": "0x8998151a1ee905efd20189a89a6910c4a0d2decb",
      "function": "registerPolicy(bytes32,uint256,uint256,uint256,address)",
      "arguments": [
        "0x0c9a873bf33bbc75673b11a7c03830e639081871fd95696913f7accfc61ad8c4",
        "1704067200",
        "1735689600",
        "500000000",
        "0x7FBbE68068A3Aa7E479A1E51e792F4C2073b018f"
      ],
      "transaction": {
        "from": "0x7fbbe68068a3aa7e479a1e51e792f4c2073b018f",
        "to": "0x8998151a1ee905efd20189a89a6910c4a0d2decb",
        "gas": "0x2e1f9",
        "value": "0x0",
        "input": "0x08c6afbe0c9a873bf33bbc75673b11a7c03830e639081871fd95696913f7accfc61ad8c400000000000000000000000000000000000000000000000000000000659200800000000000000000000000000000000000000000000000000000000067748580000000000000000000000000000000000000000000000000000000001dcd65000000000000000000000000007fbbe68068a3aa7e479a1e51e792f4c2073b018f",
        "nonce": "0xab",
        "chainId": "0x989075"
      },
      "additionalContracts": [],
      "isFixedGasLimit": false
    },
    {
      "hash": "0x4c979b2d3e3993fdbb931d6c4084b4b75e7e76e3d4e02434edc2452a82620a5b",
      "transactionType": "CALL",
      "contractName": null,
      "contractAddress": "0x8998151a1ee905efd20189a89a6910c4a0d2decb",
      "function": "payPremium(bytes32)",
      "arguments": [
        "0x0c9a873bf33bbc75673b11a7c03830e639081871fd95696913f7accfc61ad8c4"
      ],
      "transaction": {
        "from": "0x7fbbe68068a3aa7e479a1e51e792f4c2073b018f",
        "to": "0x8998151a1ee905efd20189a89a6910c4a0d2decb",
        "gas": "0xc2ef",
        "value": "0x2386f26fc10000",
        "input": "0xd8e2d2ba0c9a873bf33bbc75673b11a7c03830e639081871fd95696913f7accfc61ad8c4",
        "nonce": "0xac",
        "chainId": "0x989075"
      },
      "additionalContracts": [],
      "isFixedGasLimit": false
    },
    {
      "hash": "0x7e468ef03c0892a5a6b2b301030cec18ba2a8fdc5a6d41dbd2184c7144e2a6c9",
      "transactionType": "CALL",
      "contractName": null,
      "contractAddress": "0x8998151a1ee905efd20189a89a6910c4a0d2decb",
      "function": "registerPolicy(bytes32,uint256,uint256,uint256,address)",
      "arguments": [
        "0x1d4573922485e3132e025001d8626244c936ad6406cb7bbd6660fa3b0d14334c",
        "1704067200",
        "1735689600",
        "500000000",
        "0x7FBbE68068A3Aa7E479A1E51e792F4C2073b018f"
      ],
      "transaction": {
        "from": "0x7fbbe68068a3aa7e479a1e51e792f4c2073b018f",
        "to": "0x8998151a1ee905efd20189a89a6910c4a0d2decb",
        "gas": "0x2e1f9",
        "value": "0x0",
        "input": "0x08c6afbe1d4573922485e3132e025001d8626244c936ad6406cb7bbd6660fa3b0d14334c00000000000000000000000000000000000000000000000000000000659200800000000000000000000000000000000000000000000000000000000067748580000000000000000000000000000000000000000000000000000000001dcd65000000000000000000000000007fbbe68068a3aa7e479a1e51e792f4c2073b018f",
        "nonce": "0xad",
        "chainId": "0x989075"
      },
      "additionalContracts": [],
      "isFixedGasLimit": false
    },
    {
      "hash": "0x95f08050f03f9f912463fec4c4bcd2319ba5d9472f91b07e8ef7aaa5f2ced5ca",
      "transactionType": "CALL",
      "contractName": null,
      "contractAddress": "0x8998151a1ee905efd20189a89a6910c4a0d2decb",
      "function": "payPremium(bytes32)",
      "arguments": [
        "0x1d4573922485e3132e025001d8626244c936ad6406cb7bbd6660fa3b0d14334c"
      ],
      "transaction": {
        "from": "0x7fbbe68068a3aa7e479a1e51e792f4c2073b018f",
        "to": "0x8998151a1ee905efd20189a89a6910c4a0d2decb",
        "gas": "0xc2ef",
        "value": "0x2386f26fc10000",
        "input": "0xd8e2d2ba1d4573922485e3132e025001d8626244c936ad6406cb7bbd6660fa3b0d14334c",
        "nonce": "0xae",
        "chainId": "0x989075"
      },
      "additionalContracts": [],
      "isFixedGasLimit": false
    },
    {
      "hash": "0xa20c14b1d79c290f50070d3b9b8a32a0406f6e6ff6400c5cb2fc7b8e88acdc6f",
      "transactionType": "CALL",
      "contractName": null,
      "contractAddress": "0x8998151a1ee905efd20189a89a6910c4a0d2decb",
      "function": "registerPolicy(bytes32,uint256,uint256,uint256,address)",
      "arguments": [
        "0x288e242691a4799efb83161e889fb50c0756b69bfe6b62db988fbeb41ab6befa",
        "1704067200",
        "1735689600",
        "500000000",
        "0x7FBbE68068A3Aa7E479A1E51e792F4C2073b018f"
      ],
      "transaction": {
        "from": "0x7fbbe68068a3aa7e479a1e51e792f4c2073b018f",
        "to": "0x8998151a1ee905efd20189a89a6910c4a0d2decb",
        "gas": "0x2e1f9",
        "value": "0x0",
        "input": "0x08c6afbe288e242691a4799efb83161e889fb50c0756b69bfe6b62db988fbeb41ab6befa00000000000000000000000000000000000000000000000000000000659200800000000000000000000000000000000000000000000000000000000067748580000000000000000000000000000000000000000000000000000000001dcd65000000000000000000000000007fbbe68068a3aa7e479a1e51e792f4c2073b018f",
        "nonce": "0xaf",
        "chainId": "0x989075"
      },
      "additionalContracts": [],
      "isFixedGasLimit": false
    },
    {
      "hash": "0x246b1157b64280ea9e3d798a763f6f2643b50df165bfb5fb063192c11e8ac9b5",
      "transactionType": "CALL",
      "contractName": null,
      "contractAddress": "0x8998151a1ee905efd20189a89a6910c4a0d2decb",
      "function": "payPremium(bytes32)",
      "arguments": [
        "0x288e242691a4799efb83161e889fb50c0756b69bfe6b62db988fbeb41ab6befa"
      ],
      "transaction": {
        "from": "0x7fbbe68068a3aa7e479a1e51e792f4c2073b018f",
        "to": "0x8998151a1ee905efd20189a89a6910c4a0d2decb",
        "gas": "0xc2ef",
        "value": "0x2386f26fc10000",
        "input": "0xd8e2d2ba288e242691a4799efb83161e889fb50c0756b69bfe6b62db988fbeb41ab6befa",
        "nonce": "0xb0",
        "chainId": "0x989075"
      },
      "additionalContracts": [],
      "isFixedGasLimit": false
    },
    {
      "hash": "0x60c2facfde3090030a54ca04e6ef55ad89ecf33b0ce2b10b38430b56d87f98b6",
      "transactionType": "CALL",
      "contractName": null,
      "contractAddress": "0x8998151a1ee905efd20189a89a6910c4a0d2decb",
      "function": "registerPolicy(bytes32,uint256,uint256,uint256,address)",
      "arguments": [
        "0x9b718cf2bb3df8223e326f1000cda63b9a7c5b2895a1dac7e6f32afd8ca9bc70",
        "1704067200",
        "1735689600",
        "500000000",
        "0x7FBbE68068A3Aa7E479A1E51e792F4C2073b018f"
      ],
      "transaction": {
        "from": "0x7fbbe68068a3aa7e479a1e51e792f4c2073b018f",
        "to": "0x8998151a1ee905efd20189a89a6910c4a0d2decb",
        "gas": "0x2e1e8",
        "value": "0x0",
        "input": "0x08c6afbe9b718cf2bb3df8223e326f1000cda63b9a7c5b2895a1dac7e6f32afd8ca9bc7000000000000000000000000000000000000000000000000000000000659200800000000000000000000000000000000000000000000000000000000067748580000000000000000000000000000000000000000000000000000000001dcd65000000000000000000000000007fbbe68068a3aa7e479a1e51e792f4c2073b018f",
        "nonce": "0xb1",
        "chainId": "0x989075"
      },
      "additionalContracts": [],
      "isFixedGasLimit": false
    },
    {
      "hash": "0x40d024f61a7fa9fe9ec3acd7cfb7ff389dd5e760e8d2a678b4afd4643078b89a",
      "transactionType": "CALL",
      "contractName": null,
      "contractAddress": "0x8998151a1ee905efd20189a89a6910c4a0d2decb",
      "function": "payPremium(bytes32)",
      "arguments": [
        "0x9b718cf2bb3df8223e326f1000cda63b9a7c5b2895a1dac7e6f32afd8ca9bc70"
      ],
      "transaction": {
        "from": "0x7fbbe68068a3aa7e479a1e51e792f4c2073b018f",
        "to": "0x8998151a1ee905efd20189a89a6910c4a0d2decb",
        "gas": "0xb809",
        "value": "0x2386f26fc10000",
        "input": "0xd8e2d2ba9b718cf2bb3df8223e326f1000cda63b9a7c5b2895a1dac7e6f32afd8ca9bc70",
        "nonce": "0xb2",
        "chainId": "0x989075"
      },
      "additionalContracts": [],
      "isFixedGasLimit": false
    },
    {
      "hash": "0x8a0b12f661a12a774faf6afe70ae72f70d0708dc9d9f195cbdf470d75ec75cd2",
      "transactionType": "CALL",
      "contractName": null,
      "contractAddress": "0x8998151a1ee905efd20189a89a6910c4a0d2decb",
      "function": "registerPolicy(bytes32,uint256,uint256,uint256,address)",
      "arguments": [
        "0xfc67d8b418c0013ffbf5220f2224cbe6f59b44ee70303e4c49f47d0c56cac3c0",
        "1704067200",
        "1735689600",
        "500000000",
        "0x7FBbE68068A3Aa7E479A1E51e792F4C2073b018f"
      ],
      "transaction": {
        "from": "0x7fbbe68068a3aa7e479a1e51e792f4c2073b018f",
        "to": "0x8998151a1ee905efd20189a89a6910c4a0d2decb",
        "gas": "0x2e1f9",
        "value": "0x0",
        "input": "0x08c6afbefc67d8b418c0013ffbf5220f2224cbe6f59b44ee70303e4c49f47d0c56cac3c000000000000000000000000000000000000000000000000000000000659200800000000000000000000000000000000000000000000000000000000067748580000000000000000000000000000000000000000000000000000000001dcd65000000000000000000000000007fbbe68068a3aa7e479a1e51e792f4c2073b018f",
        "nonce": "0xb3",
        "chainId": "0x989075"
      },
      "additionalContracts": [],
      "isFixedGasLimit": false
    },
    {
      "hash": "0x7644eda974d36a925b5d752aada62f52946ada04e11333dbb0662b5c2e48911c",
      "transactionType": "CALL",
      "contractName": null,
      "contractAddress": "0x8998151a1ee905efd20189a89a6910c4a0d2decb",
      "function": "payPremium(bytes32)",
      "arguments": [
        "0xfc67d8b418c0013ffbf5220f2224cbe6f59b44ee70303e4c49f47d0c56cac3c0"
      ],
      "transaction": {
        "from": "0x7fbbe68068a3aa7e479a1e51e792f4c2073b018f",
        "to": "0x8998151a1ee905efd20189a89a6910c4a0d2decb",
        "gas": "0xc2ef",
        "value": "0x2386f26fc10000",
        "input": "0xd8e2d2bafc67d8b418c0013ffbf5220f2224cbe6f59b44ee70303e4c49f47d0c56cac3c0",
        "nonce": "0xb4",
        "chainId": "0x989075"
      },
      "additionalContracts": [],
      "isFixedGasLimit": false
    },
    {
      "hash": "0x8af6eb644ebc8a827c8b071a3274f640471a1bdc586ca56370e8c22349653b5c",
      "transactionType": "CALL",
      "contractName": null,
      "contractAddress": "0x8998151a1ee905efd20189a89a6910c4a0d2decb",
      "function": "registerPolicy(bytes32,uint256,uint256,uint256,address)",
      "arguments": [
        "0x87822e088609394bd63b81d6481c8a9270da0048ab9e486be95c8bdf23e02888",
        "1704067200",
        "1735689600",
        "500000000",
        "0x7FBbE68068A3Aa7E479A1E51e792F4C2073b018f"
      ],
      "transaction": {
        "from": "0x7fbbe68068a3aa7e479a1e51e792f4c2073b018f",
        "to": "0x8998151a1ee905efd20189a89a6910c4a0d2decb",
        "gas": "0x2e1e8",
        "value": "0x0",
        "input": "0x08c6afbe87822e088609394bd63b81d6481c8a9270da0048ab9e486be95c8bdf23e0288800000000000000000000000000000000000000000000000000000000659200800000000000000000000000000000000000000000000000000000000067748580000000000000000000000000000000000000000000000000000000001dcd65000000000000000000000000007fbbe68068a3aa7e479a1e51e792f4c2073b018f",
        "nonce": "0xb5",
        "chainId": "0x989075"
      },
      "additionalContracts": [],
      "isFixedGasLimit": false
    },
    {
      "hash": "0xd0e0e0b9f237a425a9d643b7802964df779147f24a5aec173935da1d876420d4",
      "transactionType": "CALL",
      "contractName": null,
      "contractAddress": "0x8998151a1ee905efd20189a89a6910c4a0d2decb",
      "function": "payPremium(bytes32)",
      "arguments": [
        "0x87822e088609394bd63b81d6481c8a9270da0048ab9e486be95c8bdf23e02888"
      ],
      "transaction": {
        "from": "0x7fbbe68068a3aa7e479a1e51e792f4c2073b018f",
        "to": "0x8998151a1ee905efd20189a89a6910c4a0d2decb",
        "gas": "0xb809",
        "value": "0x2386f26fc10000",
        "input": "0xd8e2d2ba87822e088609394bd63b81d6481c8a9270da0048ab9e486be95c8bdf23e02888",
        "nonce": "0xb6",
        "chainId": "0x989075"
      },
      "additionalContracts": [],
      "isFixedGasLimit": false
    },
    {
      "hash": "0x6923324850a120cde1186d27fadfdd4f7440677b9c5086f9a91176387ff9c4f1",
      "transactionType": "CALL",
      "contractName": null,
      "contractAddress": "0x8998151a1ee905efd20189a89a6910c4a0d2decb",
      "function": "registerPolicy(bytes32,uint256,uint256,uint256,address)",
      "arguments": [
        "0xe656d4dded0b649f1abcd2d38a37d9138b2ccca00885e0fe1708de5b57f9c286",
        "1704067200",
        "1735689600",
        "500000000",
        "0x7FBbE68068A3Aa7E479A1E51e792F4C2073b018f"
      ],
      "transaction": {
        "from": "0x7fbbe68068a3aa7e479a1e51e792f4c2073b018f",
        "to": "0x8998151a1ee905efd20189a89a6910c4a0d2decb",
        "gas": "0x2e1f9",
        "value": "0x0",
        "input": "0x08c6afbee656d4dded0b649f1abcd2d38a37d9138b2ccca00885e0fe1708de5b57f9c28600000000000000000000000000000000000000000000000000000000659200800000000000000000000000000000000000000000000000000000000067748580000000000000000000000000000000000000000000000000000000001dcd65000000000000000000000000007fbbe68068a3aa7e479a1e51e792f4c2073b018f",
        "nonce": "0xb7",
        "chainId": "0x989075"
      },
      "additionalContracts": [],
      "isFixedGasLimit": false
    },
    {
      "hash": "0x358683f3862f30976351004d1c812e2705da3fd52c321e66fc9f3d5085f4ac7d",
      "transactionType": "CALL",
      "contractName": null,
      "contractAddress": "0x8998151a1ee905efd20189a89a6910c4a0d2decb",
      "function": "payPremium(bytes32)",
      "arguments": [
        "0xe656d4dded0b649f1abcd2d38a37d9138b2ccca00885e0fe1708de5b57f9c286"
      ],
      "transaction": {
        "from": "0x7fbbe68068a3aa7e479a1e51e792f4c2073b018f",
        "to": "0x8998151a1ee905efd20189a89a6910c4a0d2decb",
        "gas": "0xc2ef",
        "value": "0x2386f26fc10000",
        "input": "0xd8e2d2bae656d4dded0b649f1abcd2d38a37d9138b2ccca00885e0fe1708de5b57f9c286",
        "nonce": "0xb8",
        "chainId": "0x989075"
      },
      "additionalContracts": [],
      "isFixedGasLimit": false
    },
    {
      "hash": "0xb6458bd75f93d8c66a3be88fad7ca55a44dae33c0984499041d6c12d964f8e9b",
      "transactionType": "CALL",
      "contractName": null,
      "contractAddress": "0x8998151a1ee905efd20189a89a6910c4a0d2decb",
      "function": "registerPolicy(bytes32,uint256,uint256,uint256,address)",
      "arguments": [
        "0xbdf8d273ac5a96c79db7d4511f9287f077a64e158052e9780f96246818ec8dbf",
        "1704067200",
        "1735689600",
        "500000000",
        "0x7FBbE68068A3Aa7E479A1E51e792F4C2073b018f"
      ],
      "transaction": {
        "from": "0x7fbbe68068a3aa7e479a1e51e792f4c2073b018f",
        "to": "0x8998151a1ee905efd20189a89a6910c4a0d2decb",
        "gas": "0x2e1f9",
        "value": "0x0",
        "input": "0x08c6afbebdf8d273ac5a96c79db7d4511f9287f077a64e158052e9780f96246818ec8dbf00000000000000000000000000000000000000000000000000000000659200800000000000000000000000000000000000000000000000000000000067748580000000000000000000000000000000000000000000000000000000001dcd65000000000000000000000000007fbbe68068a3aa7e479a1e51e792f4c2073b018f",
        "nonce": "0xb9",
        "chainId": "0x989075"
      },
      "additionalContracts": [],
      "isFixedGasLimit": false
    },
    {
      "hash": "0x13e6fa03c7865f67a17bcbce01699e5755e831762c1361526de8fb3501ccd4f1",
      "transactionType": "CALL",
      "contractName": null,
      "contractAddress": "0x8998151a1ee905efd20189a89a6910c4a0d2decb",
      "function": "payPremium(bytes32)",
      "arguments": [
        "0xbdf8d273ac5a96c79db7d4511f9287f077a64e158052e9780f96246818ec8dbf"
      ],
      "transaction": {
        "from": "0x7fbbe68068a3aa7e479a1e51e792f4c2073b018f",
        "to": "0x8998151a1ee905efd20189a89a6910c4a0d2decb",
        "gas": "0xc2ef",
        "value": "0x2386f26fc10000",
        "input": "0xd8e2d2babdf8d273ac5a96c79db7d4511f9287f077a64e158052e9780f96246818ec8dbf",
        "nonce": "0xba",
        "chainId": "0x989075"
      },
      "additionalContracts": [],
      "isFixedGasLimit": false
    },
    {
      "hash": "0x27138e769098ea3832fe29c7106e38ed6a0c30a40a6bed5d3e9302b8cc8b3abb",
      "transactionType": "CALL",
      "contractName": null,
      "contractAddress": "0x8998151a1ee905efd20189a89a6910c4a0d2decb",
      "function": "registerPolicy(bytes32,uint256,uint256,uint256,address)",
      "arguments": [
        "0xb023076a4276031fd9688036ff88b8f86016e73e3b472287db01440b0a2d389c",
        "1704067200",
        "1735689600",
        "500000000",
        "0x7FBbE68068A3Aa7E479A1E51e792F4C2073b018f"
      ],
      "transaction": {
        "from": "0x7fbbe68068a3aa7e479a1e51e792f4c2073b018f",
        "to": "0x8998151a1ee905efd20189a89a6910c4a0d2decb",
        "gas": "0x2e1f9",
        "value": "0x0",
        "input": "0x08c6afbeb023076a4276031fd9688036ff88b8f86016e73e3b472287db01440b0a2d389c00000000000000000000000000000000000000000000000000000000659200800000000000000000000000000000000000000000000000000000000067748580000000000000000000000000000000000000000000000000000000001dcd65000000000000000000000000007fbbe68068a3aa7e479a1e51e792f4c2073b018f",
        "nonce": "0xbb",
        "chainId": "0x989075"
      },
      "additionalContracts": [],
      "isFixedGasLimit": false
    },
    {
      "hash": "0x0ba97615852db40b9a71296385e5810d8e86fd11fdbc9f6f181388fd181d99ec",
      "transactionType": "CALL",
      "contractName": null,
      "contractAddress": "0x8998151a1ee905efd20189a89a6910c4a0d2decb",
      "function": "payPremium(bytes32)",
      "arguments": [
        "0xb023076a4276031fd9688036ff88b8f86016e73e3b472287db01440b0a2d389c"
      ],
      "transaction": {
        "from": "0x7fbbe68068a3aa7e479a1e51e792f4c2073b018f",
        "to": "0x8998151a1ee905efd20189a89a6910c4a0d2decb",
        "gas": "0xc2ef",
        "value": "0x2386f26fc10000",
        "input": "0xd8e2d2bab023076a4276031fd9688036ff88b8f86016e73e3b472287db01440b0a2d389c",
        "nonce": "0xbc",
        "chainId": "0x989075"
      },
      "additionalContracts": [],
      "isFixedGasLimit": false
    },
    {
      "hash": "0xa89e7ac6d087f23cc545a959494d18ef4ecb31ec3b98fa9352bada221aff8fd3",
      "transactionType": "CALL",
      "contractName": null,
      "contractAddress": "0x8998151a1ee905efd20189a89a6910c4a0d2decb",
      "function": "registerPolicy(bytes32,uint256,uint256,uint256,address)",
      "arguments": [
        "0x4d06feb625a530e437dd11d1204b72bcb9c70458c8d7b7777462a60d0c942b66",
        "1704067200",
        "1735689600",
        "500000000",
        "0x7FBbE68068A3Aa7E479A1E51e792F4C2073b018f"
      ],
      "transaction": {
        "from": "0x7fbbe68068a3aa7e479a1e51e792f4c2073b018f",
        "to": "0x8998151a1ee905efd20189a89a6910c4a0d2decb",
        "gas": "0x2e1f9",
        "value": "0x0",
        "input": "0x08c6afbe4d06feb625a530e437dd11d1204b72bcb9c70458c8d7b7777462a60d0c942b6600000000000000000000000000000000000000000000000000000000659200800000000000000000000000000000000000000000000000000000000067748580000000000000000000000000000000000000000000000000000000001dcd65000000000000000000000000007fbbe68068a3aa7e479a1e51e792f4c2073b018f",
        "nonce": "0xbd",
        "chainId": "0x989075"
      },
      "additionalContracts": [],
      "isFixedGasLimit": false
    },
    {
      "hash": "0xea495587888b611b46bd02e5727592a4a6807806b06a8054c292b07280c8f933",
      "transactionType": "CALL",
      "contractName": null,
      "contractAddress": "0x8998151a1ee905efd20189a89a6910c4a0d2decb",
      "function": "payPremium(bytes32)",
      "arguments": [
        "0x4d06feb625a530e437dd11d1204b72bcb9c70458c8d7b7777462a60d0c942b66"
      ],
      "transaction": {
        "from": "0x7fbbe68068a3aa7e479a1e51e792f4c2073b018f",
        "to": "0x8998151a1ee905efd20189a89a6910c4a0d2decb",
        "gas": "0xc2ef",
        "value": "0x2386f26fc10000",
        "input": "0xd8e2d2ba4d06feb625a530e437dd11d1204b72bcb9c70458c8d7b7777462a60d0c942b66",
        "nonce": "0xbe",
        "chainId": "0x989075"
      },
      "additionalContracts": [],
      "isFixedGasLimit": false
    }
  ],
  "receipts": [
    {
      "status": "0x1",
      "cumulativeGasUsed": "0x21648",
      "logs": [
        {
          "address": "0x8998151a1ee905efd20189a89a6910c4a0d2decb",
          "topics": [
            "0x06d3f96554bf58a9bcb7c0ab9ad161c9324c2aa1fe5bba413e54ae79fb022623",
            "0x0c9a873bf33bbc75673b11a7c03830e639081871fd95696913f7accfc61ad8c4",
            "0x0000000000000000000000007fbbe68068a3aa7e479a1e51e792f4c2073b018f",
            "0x0000000000000000000000007fbbe68068a3aa7e479a1e51e792f4c2073b018f"
          ],
          "data": "0x",
          "blockHash": "0x6bb1b46c3f5fa150b4467907aa95ea58c4e7ab773d2e663274991a878c0f945e",
          "blockNumber": "0x28ecdf9",
          "transactionHash": "0x4c979b2d3e3993fdbb931d6c4084b4b75e7e76e3d4e02434edc2452a82620a5b",
          "transactionIndex": "0x0",
          "logIndex": "0x0",
          "removed": false
        }
      ],
      "logsBloom": "0x00000000000000000000000000000000000000000000000000000000000000000800000000000000000000000040000000200000000000000000000000000000000000001000000000000000000000000000000000000000000000000040000000000000000000000000000000000000000000000000000000000000000000000000000000000000000000000000000000000000000000000000000000000000000000000000000000000000000000000000000000000000000000000000000000000000000000000002000000000000000004400000040000000000000000000000000000000000000001000000000000000040000000000000000000000020",
      "type": "0x2",
      "transactionHash": "0x4c979b2d3e3993fdbb931d6c4084b4b75e7e76e3d4e02434edc2452a82620a5b",
      "transactionIndex": "0x0",
      "blockHash": "0x6bb1b46c3f5fa150b4467907aa95ea58c4e7ab773d2e663274991a878c0f945e",
      "blockNumber": "0x28ecdf9",
      "gasUsed": "0x21648",
      "effectiveGasPrice": "0x2",
      "blobGasUsed": "0x0",
      "from": "0x7fbbe68068a3aa7e479a1e51e792f4c2073b018f",
      "to": "0x8998151a1ee905efd20189a89a6910c4a0d2decb",
      "contractAddress": null
    },
    {
      "status": "0x1",
      "cumulativeGasUsed": "0x21648",
      "logs": [
        {
          "address": "0x8998151a1ee905efd20189a89a6910c4a0d2decb",
          "topics": [
            "0x06d3f96554bf58a9bcb7c0ab9ad161c9324c2aa1fe5bba413e54ae79fb022623",
            "0xe46939b087f17eb76748523c42e8e6da99acfbda1bda46e82038abfc93397b3e",
            "0x0000000000000000000000007fbbe68068a3aa7e479a1e51e792f4c2073b018f",
            "0x0000000000000000000000007fbbe68068a3aa7e479a1e51e792f4c2073b018f"
          ],
          "data": "0x",
          "blockHash": "0x4e8073dc6db1d61ef396c906516e062aef8598542abaed9024adf48571c1c560",
          "blockNumber": "0x28ecdfa",
          "transactionHash": "0xcc0c751ae2f873b5c02357709cf8de01c440fc5dcfe209a831380ebe230c84fb",
          "transactionIndex": "0x0",
          "logIndex": "0x0",
          "removed": false
        }
      ],
      "logsBloom": "0x00000000000000001000000000000000000000000000000000000000000000000000000000000000000000000040000000000000000000000000000000000000000000021000000000000000000000000000000000000000000000000040000000000000000000000000000000000000000000000000000000000000000000000000000000000000000000000000000000000000000000000000000000000000000000000000000000000000000000000000000000000000000000000000000000000000000000000002000000000000000004400000000000000020000000000000000000000000000001000000000000000040000000000000000000000020",
      "type": "0x2",
      "transactionHash": "0xcc0c751ae2f873b5c02357709cf8de01c440fc5dcfe209a831380ebe230c84fb",
      "transactionIndex": "0x0",
      "blockHash": "0x4e8073dc6db1d61ef396c906516e062aef8598542abaed9024adf48571c1c560",
      "blockNumber": "0x28ecdfa",
      "gasUsed": "0x21648",
      "effectiveGasPrice": "0x2",
      "blobGasUsed": "0x0",
      "from": "0x7fbbe68068a3aa7e479a1e51e792f4c2073b018f",
      "to": "0x8998151a1ee905efd20189a89a6910c4a0d2decb",
      "contractAddress": null
    },
    {
      "status": "0x1",
      "cumulativeGasUsed": "0x21648",
      "logs": [
        {
          "address": "0x8998151a1ee905efd20189a89a6910c4a0d2decb",
          "topics": [
            "0x06d3f96554bf58a9bcb7c0ab9ad161c9324c2aa1fe5bba413e54ae79fb022623",
            "0xe656d4dded0b649f1abcd2d38a37d9138b2ccca00885e0fe1708de5b57f9c286",
            "0x0000000000000000000000007fbbe68068a3aa7e479a1e51e792f4c2073b018f",
            "0x0000000000000000000000007fbbe68068a3aa7e479a1e51e792f4c2073b018f"
          ],
          "data": "0x",
          "blockHash": "0x6d37ac9ed04d5760d2c059e6aa6ee56f118b0c6013cbdf6d8f068269092828c6",
          "blockNumber": "0x28ecdfb",
          "transactionHash": "0x7d2c8596bdabea366afd0ec4c7fb61c1be91837efe0f8eef25f91b9bf6e167c3",
          "transactionIndex": "0x0",
          "logIndex": "0x0",
          "removed": false
        }
      ],
      "logsBloom": "0x00000000000000000000000000000000000000000000000000000000000000000000000000000000000000000040000000000000000000000000000000000000000000001000000000000000000000000000000000000000010000000040000000000000000000000000000000000000000000000000000000000000000000000000000000000000000000000000000000000000000000000000000000000000000000000000000000000000000000000000000000000000000000000000000000000000000000000002000000000000000004400000000000000000000000000000000000000000000001000000000001000040000000000000000008000020",
      "type": "0x2",
      "transactionHash": "0x7d2c8596bdabea366afd0ec4c7fb61c1be91837efe0f8eef25f91b9bf6e167c3",
      "transactionIndex": "0x0",
      "blockHash": "0x6d37ac9ed04d5760d2c059e6aa6ee56f118b0c6013cbdf6d8f068269092828c6",
      "blockNumber": "0x28ecdfb",
      "gasUsed": "0x21648",
      "effectiveGasPrice": "0x2",
      "blobGasUsed": "0x0",
      "from": "0x7fbbe68068a3aa7e479a1e51e792f4c2073b018f",
      "to": "0x8998151a1ee905efd20189a89a6910c4a0d2decb",
      "contractAddress": null
    },
    {
      "status": "0x1",
      "cumulativeGasUsed": "0x21648",
      "logs": [
        {
          "address": "0x8998151a1ee905efd20189a89a6910c4a0d2decb",
          "topics": [
            "0x06d3f96554bf58a9bcb7c0ab9ad161c9324c2aa1fe5bba413e54ae79fb022623",
            "0xbdf8d273ac5a96c79db7d4511f9287f077a64e158052e9780f96246818ec8dbf",
            "0x0000000000000000000000007fbbe68068a3aa7e479a1e51e792f4c2073b018f",
            "0x0000000000000000000000007fbbe68068a3aa7e479a1e51e792f4c2073b018f"
          ],
          "data": "0x",
          "blockHash": "0xe9a3af31e53ee126eccc00fb6dbfed45f8062c6f969e3bdc87bb62c6b7f32825",
          "blockNumber": "0x28ecdfc",
          "transactionHash": "0x40d024f61a7fa9fe9ec3acd7cfb7ff389dd5e760e8d2a678b4afd4643078b89a",
          "transactionIndex": "0x0",
          "logIndex": "0x0",
          "removed": false
        }
      ],
      "logsBloom": "0x00000000000000000000000000000000000000000000000000000000000000000000000000000000000000000040000000000000000100000000000000000000000000001000000000000000000000000000000000000000000000000044000000000000000000000000000000000000000000000000000000000000000000000000000000000000000000000000000000000000000000000000000000000000000000000000000000000000000000000000000000000000000000000000000000000002000000000002000000000000000004400000000000000000000000000000000000000000000001000000000000000040000000000000000000000020",
      "type": "0x2",
      "transactionHash": "0x40d024f61a7fa9fe9ec3acd7cfb7ff389dd5e760e8d2a678b4afd4643078b89a",
      "transactionIndex": "0x0",
      "blockHash": "0xe9a3af31e53ee126eccc00fb6dbfed45f8062c6f969e3bdc87bb62c6b7f32825",
      "blockNumber": "0x28ecdfc",
      "gasUsed": "0x21648",
      "effectiveGasPrice": "0x2",
      "blobGasUsed": "0x0",
      "from": "0x7fbbe68068a3aa7e479a1e51e792f4c2073b018f",
      "to": "0x8998151a1ee905efd20189a89a6910c4a0d2decb",
      "contractAddress": null
    },
    {
      "status": "0x1",
      "cumulativeGasUsed": "0x21648",
      "logs": [
        {
          "address": "0x8998151a1ee905efd20189a89a6910c4a0d2decb",
          "topics": [
            "0x06d3f96554bf58a9bcb7c0ab9ad161c9324c2aa1fe5bba413e54ae79fb022623",
            "0x5e5b75c527cfa9c118c5e75ef3992f32f2b5eb2521a6d5ad487678757e8f9842",
            "0x0000000000000000000000007fbbe68068a3aa7e479a1e51e792f4c2073b018f",
            "0x0000000000000000000000007fbbe68068a3aa7e479a1e51e792f4c2073b018f"
          ],
          "data": "0x",
          "blockHash": "0x1d91cea292a32a8537ace1dbc4efeaee23a51ae5d209b1cb04f3d8c0e2344ede",
          "blockNumber": "0x28ecdfd",
          "transactionHash": "0x8af6eb644ebc8a827c8b071a3274f640471a1bdc586ca56370e8c22349653b5c",
          "transactionIndex": "0x0",
          "logIndex": "0x0",
          "removed": false
        }
      ],
      "logsBloom": "0x00000000000000000000000000000000000000000000000000000000000000000000000000000000000000000040000000000000000000000000000000000000000000001000000000000000000000000000000000000000000000000040000000000000000000000000000000000000000000000000000000000000000000000000000000000000000000000000000000000000000000000000000000000000000000000000000000000000000000000000000000000000000000000000000000000000000000000002000000000001000004400000000000000000000000000000000000000000000001000000000000000040000000000000000000000820",
      "type": "0x2",
      "transactionHash": "0x8af6eb644ebc8a827c8b071a3274f640471a1bdc586ca56370e8c22349653b5c",
      "transactionIndex": "0x0",
      "blockHash": "0x1d91cea292a32a8537ace1dbc4efeaee23a51ae5d209b1cb04f3d8c0e2344ede",
      "blockNumber": "0x28ecdfd",
      "gasUsed": "0x21648",
      "effectiveGasPrice": "0x2",
      "blobGasUsed": "0x0",
      "from": "0x7fbbe68068a3aa7e479a1e51e792f4c2073b018f",
      "to": "0x8998151a1ee905efd20189a89a6910c4a0d2decb",
      "contractAddress": null
    },
    {
      "status": "0x1",
      "cumulativeGasUsed": "0x21648",
      "logs": [
        {
          "address": "0x8998151a1ee905efd20189a89a6910c4a0d2decb",
          "topics": [
            "0x06d3f96554bf58a9bcb7c0ab9ad161c9324c2aa1fe5bba413e54ae79fb022623",
            "0x108e036bfd375855213c93c12aa20bb1014f6a16a5d8e3921d138e7634041e57",
            "0x0000000000000000000000007fbbe68068a3aa7e479a1e51e792f4c2073b018f",
            "0x0000000000000000000000007fbbe68068a3aa7e479a1e51e792f4c2073b018f"
          ],
          "data": "0x",
          "blockHash": "0x6301708cef25a8f2dea9b013871bb9a9e3af0a5fca95c2e78abbdf289223f279",
          "blockNumber": "0x28ecdff",
          "transactionHash": "0x13e6fa03c7865f67a17bcbce01699e5755e831762c1361526de8fb3501ccd4f1",
          "transactionIndex": "0x0",
          "logIndex": "0x0",
          "removed": false
        }
      ],
      "logsBloom": "0x00000000000000000000000000000000000000000000000000000000000000000000000000000000000000000040000000000000000000000000000000000000000000001000000000000000000000000000000000000000000000000040000000000020000000000000000000000000400000000000000000000000000000000000000000000000000000000000000000000000000000000000000000000000000000000000000000000000000000000000000000000000000000000000000000000000000000000002000000000000000004400000000000000000000000000000000000040000000001000000000000000040000000000000000000000020",
      "type": "0x2",
      "transactionHash": "0x13e6fa03c7865f67a17bcbce01699e5755e831762c1361526de8fb3501ccd4f1",
      "transactionIndex": "0x0",
      "blockHash": "0x6301708cef25a8f2dea9b013871bb9a9e3af0a5fca95c2e78abbdf289223f279",
      "blockNumber": "0x28ecdff",
      "gasUsed": "0x21648",
      "effectiveGasPrice": "0x2",
      "blobGasUsed": "0x0",
      "from": "0x7fbbe68068a3aa7e479a1e51e792f4c2073b018f",
      "to": "0x8998151a1ee905efd20189a89a6910c4a0d2decb",
      "contractAddress": null
    },
    {
      "status": "0x1",
      "cumulativeGasUsed": "0x21648",
      "logs": [
        {
          "address": "0x8998151a1ee905efd20189a89a6910c4a0d2decb",
          "topics": [
            "0x06d3f96554bf58a9bcb7c0ab9ad161c9324c2aa1fe5bba413e54ae79fb022623",
            "0x1d4573922485e3132e025001d8626244c936ad6406cb7bbd6660fa3b0d14334c",
            "0x0000000000000000000000007fbbe68068a3aa7e479a1e51e792f4c2073b018f",
            "0x0000000000000000000000007fbbe68068a3aa7e479a1e51e792f4c2073b018f"
          ],
          "data": "0x",
          "blockHash": "0xc06d0e188c432846ca38243bef05653a3832db30667ed92ec92d464fc76dee60",
          "blockNumber": "0x28ece00",
          "transactionHash": "0x0ba97615852db40b9a71296385e5810d8e86fd11fdbc9f6f181388fd181d99ec",
          "transactionIndex": "0x0",
          "logIndex": "0x0",
          "removed": false
        }
      ],
      "logsBloom": "0x00000000000000000000000000000000000040000000000000000000000000000000000000000000000000000040000000000000000000000000000000000000000000001000000000000000000000000000000080000000000000000040000000000000000000000000000000000000000000000000000000000000000000000000000000000000000000000000000000000000000000200000000000000000000000000000000000000000000000000000000000000000000000000000000000000000000000000002000000000000000004400000000000000000000000000000000000000000000001000000000000000040000000000000000000000020",
      "type": "0x2",
      "transactionHash": "0x0ba97615852db40b9a71296385e5810d8e86fd11fdbc9f6f181388fd181d99ec",
      "transactionIndex": "0x0",
      "blockHash": "0xc06d0e188c432846ca38243bef05653a3832db30667ed92ec92d464fc76dee60",
      "blockNumber": "0x28ece00",
      "gasUsed": "0x21648",
      "effectiveGasPrice": "0x2",
      "blobGasUsed": "0x0",
      "from": "0x7fbbe68068a3aa7e479a1e51e792f4c2073b018f",
      "to": "0x8998151a1ee905efd20189a89a6910c4a0d2decb",
      "contractAddress": null
    },
    {
      "status": "0x1",
      "cumulativeGasUsed": "0x2163c",
      "logs": [
        {
          "address": "0x8998151a1ee905efd20189a89a6910c4a0d2decb",
          "topics": [
            "0x06d3f96554bf58a9bcb7c0ab9ad161c9324c2aa1fe5bba413e54ae79fb022623",
            "0x87822e088609394bd63b81d6481c8a9270da0048ab9e486be95c8bdf23e02888",
            "0x0000000000000000000000007fbbe68068a3aa7e479a1e51e792f4c2073b018f",
            "0x0000000000000000000000007fbbe68068a3aa7e479a1e51e792f4c2073b018f"
          ],
          "data": "0x",
          "blockHash": "0x33b7e50d716edefbb6be3ec42c527990d13fa87182cdfcef22bb44a2b2c2c09e",
          "blockNumber": "0x28ece02",
          "transactionHash": "0x246b1157b64280ea9e3d798a763f6f2643b50df165bfb5fb063192c11e8ac9b5",
          "transactionIndex": "0x0",
          "logIndex": "0x0",
          "removed": false
        }
      ],
      "logsBloom": "0x00000000000000000000000000000000000000000000000000000000000000000000000000000000000000000040000000000000000000000000000000000000000000001000000000000000000000000000000000000000000002000040000000000000000000000000000000000000000100000000000000000000000000000000000000000000000000000000000000000000000000000000000000000000000000000000000000000000000000000000000000000000000000000000000000000000000000000002000000000000000004400000000000000000000200000000000000000000000001000000000000000040000000000000000000000020",
      "type": "0x2",
      "transactionHash": "0x246b1157b64280ea9e3d798a763f6f2643b50df165bfb5fb063192c11e8ac9b5",
      "transactionIndex": "0x0",
      "blockHash": "0x33b7e50d716edefbb6be3ec42c527990d13fa87182cdfcef22bb44a2b2c2c09e",
      "blockNumber": "0x28ece02",
      "gasUsed": "0x2163c",
      "effectiveGasPrice": "0x2",
      "blobGasUsed": "0x0",
      "from": "0x7fbbe68068a3aa7e479a1e51e792f4c2073b018f",
      "to": "0x8998151a1ee905efd20189a89a6910c4a0d2decb",
      "contractAddress": null
    },
    {
      "status": "0x1",
      "cumulativeGasUsed": "0x854a",
      "logs": [
        {
          "address": "0x8998151a1ee905efd20189a89a6910c4a0d2decb",
          "topics": [
            "0xb41b343a3283a10d6ef47634e31fa021d16241a70d5cb1163db6a4d4ddd973b5",
            "0xe46939b087f17eb76748523c42e8e6da99acfbda1bda46e82038abfc93397b3e",
            "0x0000000000000000000000007fbbe68068a3aa7e479a1e51e792f4c2073b018f"
          ],
          "data": "0x",
          "blockHash": "0x60801acb38eccfec3107fdc11da2a4ebc69ef0aed6ce931b4456f271f0f928d9",
          "blockNumber": "0x28ece03",
          "transactionHash": "0x7644eda974d36a925b5d752aada62f52946ada04e11333dbb0662b5c2e48911c",
          "transactionIndex": "0x0",
          "logIndex": "0x0",
          "removed": false
        }
      ],
      "logsBloom": "0x00000000000000001000000000000000000000000000000000000000000000000000000000000000000000000000000000080000000000000000000000000000000000021000000000000000000000000000000000000000000000000040000000000000000000000000000000000000000000000000000000000000000000000000000000000000000000000000000000000000000000000000000000000000000000000000000000000000000000000000000000000000000000000000000000000000000000000002000000000000000004400000000000000020000000000000000000000000000000000020000000000000000000000000000010000020",
      "type": "0x2",
      "transactionHash": "0x7644eda974d36a925b5d752aada62f52946ada04e11333dbb0662b5c2e48911c",
      "transactionIndex": "0x0",
      "blockHash": "0x60801acb38eccfec3107fdc11da2a4ebc69ef0aed6ce931b4456f271f0f928d9",
      "blockNumber": "0x28ece03",
      "gasUsed": "0x854a",
      "effectiveGasPrice": "0x2",
      "blobGasUsed": "0x0",
      "from": "0x7fbbe68068a3aa7e479a1e51e792f4c2073b018f",
      "to": "0x8998151a1ee905efd20189a89a6910c4a0d2decb",
      "contractAddress": null
    },
    {
      "status": "0x1",
      "cumulativeGasUsed": "0x854a",
      "logs": [
        {
          "address": "0x8998151a1ee905efd20189a89a6910c4a0d2decb",
          "topics": [
            "0xb41b343a3283a10d6ef47634e31fa021d16241a70d5cb1163db6a4d4ddd973b5",
            "0xe656d4dded0b649f1abcd2d38a37d9138b2ccca00885e0fe1708de5b57f9c286",
            "0x0000000000000000000000007fbbe68068a3aa7e479a1e51e792f4c2073b018f"
          ],
          "data": "0x",
          "blockHash": "0x6a6fd768ded80d497adc34a6b08c11f366ae61d3e65ccd582a36b4c6f9ada40b",
          "blockNumber": "0x28ece05",
          "transactionHash": "0x27138e769098ea3832fe29c7106e38ed6a0c30a40a6bed5d3e9302b8cc8b3abb",
          "transactionIndex": "0x0",
          "logIndex": "0x0",
          "removed": false
        }
      ],
      "logsBloom": "0x00000000000000000000000000000000000000000000000000000000000000000000000000000000000000000000000000080000000000000000000000000000000000001000000000000000000000000000000000000000010000000040000000000000000000000000000000000000000000000000000000000000000000000000000000000000000000000000000000000000000000000000000000000000000000000000000000000000000000000000000000000000000000000000000000000000000000000002000000000000000004400000000000000000000000000000000000000000000000000020000001000000000000000000000018000020",
      "type": "0x2",
      "transactionHash": "0x27138e769098ea3832fe29c7106e38ed6a0c30a40a6bed5d3e9302b8cc8b3abb",
      "transactionIndex": "0x0",
      "blockHash": "0x6a6fd768ded80d497adc34a6b08c11f366ae61d3e65ccd582a36b4c6f9ada40b",
      "blockNumber": "0x28ece05",
      "gasUsed": "0x854a",
      "effectiveGasPrice": "0x2",
      "blobGasUsed": "0x0",
      "from": "0x7fbbe68068a3aa7e479a1e51e792f4c2073b018f",
      "to": "0x8998151a1ee905efd20189a89a6910c4a0d2decb",
      "contractAddress": null
    },
    {
      "status": "0x1",
      "cumulativeGasUsed": "0x854a",
      "logs": [
        {
          "address": "0x8998151a1ee905efd20189a89a6910c4a0d2decb",
          "topics": [
            "0xb41b343a3283a10d6ef47634e31fa021d16241a70d5cb1163db6a4d4ddd973b5",
            "0x108e036bfd375855213c93c12aa20bb1014f6a16a5d8e3921d138e7634041e57",
            "0x0000000000000000000000007fbbe68068a3aa7e479a1e51e792f4c2073b018f"
          ],
          "data": "0x",
          "blockHash": "0x9414e225922d12d5ded773d45c25ba7bb5f5d42814f5f9f3faf49145ca6abf2e",
          "blockNumber": "0x28ece06",
          "transactionHash": "0xa89e7ac6d087f23cc545a959494d18ef4ecb31ec3b98fa9352bada221aff8fd3",
          "transactionIndex": "0x0",
          "logIndex": "0x0",
          "removed": false
        }
      ],
      "logsBloom": "0x00000000000000000000000000000000000000000000000000000000000000000000000000000000000000000000000000080000000000000000000000000000000000001000000000000000000000000000000000000000000000000040000000000020000000000000000000000000400000000000000000000000000000000000000000000000000000000000000000000000000000000000000000000000000000000000000000000000000000000000000000000000000000000000000000000000000000000002000000000000000004400000000000000000000000000000000000040000000000000020000000000000000000000000000010000020",
      "type": "0x2",
      "transactionHash": "0xa89e7ac6d087f23cc545a959494d18ef4ecb31ec3b98fa9352bada221aff8fd3",
      "transactionIndex": "0x0",
      "blockHash": "0x9414e225922d12d5ded773d45c25ba7bb5f5d42814f5f9f3faf49145ca6abf2e",
      "blockNumber": "0x28ece06",
      "gasUsed": "0x854a",
      "effectiveGasPrice": "0x2",
      "blobGasUsed": "0x0",
      "from": "0x7fbbe68068a3aa7e479a1e51e792f4c2073b018f",
      "to": "0x8998151a1ee905efd20189a89a6910c4a0d2decb",
      "contractAddress": null
    },
    {
      "status": "0x1",
      "cumulativeGasUsed": "0x854a",
      "logs": [
        {
          "address": "0x8998151a1ee905efd20189a89a6910c4a0d2decb",
          "topics": [
            "0xb41b343a3283a10d6ef47634e31fa021d16241a70d5cb1163db6a4d4ddd973b5",
            "0x0c9a873bf33bbc75673b11a7c03830e639081871fd95696913f7accfc61ad8c4",
            "0x0000000000000000000000007fbbe68068a3aa7e479a1e51e792f4c2073b018f"
          ],
          "data": "0x",
          "blockHash": "0xc1f57b27e5675ffe77c48cf2a30cac2b79da545a5ec02c6ed1892833e6ee7369",
          "blockNumber": "0x28ece08",
          "transactionHash": "0xb9b06ee2d998cc6cf6dcffdbafd9ad63fbfcf3bcd830eebed4b01ea448ba8693",
          "transactionIndex": "0x0",
          "logIndex": "0x0",
          "removed": false
        }
      ],
      "logsBloom": "0x00000000000000000000000000000000000000000000000000000000000000000800000000000000000000000000000000280000000000000000000000000000000000001000000000000000000000000000000000000000000000000040000000000000000000000000000000000000000000000000000000000000000000000000000000000000000000000000000000000000000000000000000000000000000000000000000000000000000000000000000000000000000000000000000000000000000000000002000000000000000004400000040000000000000000000000000000000000000000000020000000000000000000000000000010000020",
      "type": "0x2",
      "transactionHash": "0xb9b06ee2d998cc6cf6dcffdbafd9ad63fbfcf3bcd830eebed4b01ea448ba8693",
      "transactionIndex": "0x0",
      "blockHash": "0xc1f57b27e5675ffe77c48cf2a30cac2b79da545a5ec02c6ed1892833e6ee7369",
      "blockNumber": "0x28ece08",
      "gasUsed": "0x854a",
      "effectiveGasPrice": "0x2",
      "blobGasUsed": "0x0",
      "from": "0x7fbbe68068a3aa7e479a1e51e792f4c2073b018f",
      "to": "0x8998151a1ee905efd20189a89a6910c4a0d2decb",
      "contractAddress": null
    },
    {
      "status": "0x1",
      "cumulativeGasUsed": "0x21648",
      "logs": [
        {
          "address": "0x8998151a1ee905efd20189a89a6910c4a0d2decb",
          "topics": [
            "0x06d3f96554bf58a9bcb7c0ab9ad161c9324c2aa1fe5bba413e54ae79fb022623",
            "0x4d06feb625a530e437dd11d1204b72bcb9c70458c8d7b7777462a60d0c942b66",
            "0x0000000000000000000000007fbbe68068a3aa7e479a1e51e792f4c2073b018f",
            "0x0000000000000000000000007fbbe68068a3aa7e479a1e51e792f4c2073b018f"
          ],
          "data": "0x",
          "blockHash": "0xf382e57693cbe45db27f65f2a36a1c83e0aded40fe0a45ca0363a598390c9c5c",
          "blockNumber": "0x28ece09",
          "transactionHash": "0x35ea9851a59d215c7fd91e0f1172dc67ee996a03916305569f6e82eb93689ed8",
          "transactionIndex": "0x0",
          "logIndex": "0x0",
          "removed": false
        }
      ],
      "logsBloom": "0x00000000000000000000000000000000000000000000010000000000000000000000000000000000000000000040000000000000000000000000000000000000000000001000000000000000000000000000000000000000000000000040000000000000000000000000800000000000000000000000000000000020000000000000000000000000000000000000000000000000000000000000000000000000000000000000000000000000000000000000000000000000000000000000000000000000000000000002000000000000000004400000000000000000000000000000000000000000000001000000000000000040000000000000000000000020",
      "type": "0x2",
      "transactionHash": "0x35ea9851a59d215c7fd91e0f1172dc67ee996a03916305569f6e82eb93689ed8",
      "transactionIndex": "0x0",
      "blockHash": "0xf382e57693cbe45db27f65f2a36a1c83e0aded40fe0a45ca0363a598390c9c5c",
      "blockNumber": "0x28ece09",
      "gasUsed": "0x21648",
      "effectiveGasPrice": "0x2",
      "blobGasUsed": "0x0",
      "from": "0x7fbbe68068a3aa7e479a1e51e792f4c2073b018f",
      "to": "0x8998151a1ee905efd20189a89a6910c4a0d2decb",
      "contractAddress": null
    },
    {
      "status": "0x1",
      "cumulativeGasUsed": "0x21648",
      "logs": [
        {
          "address": "0x8998151a1ee905efd20189a89a6910c4a0d2decb",
          "topics": [
            "0x06d3f96554bf58a9bcb7c0ab9ad161c9324c2aa1fe5bba413e54ae79fb022623",
            "0xf74971c7cdd014c5fe5a08c75b1e833b5181463e74dde591553c6ab9fa48c09d",
            "0x0000000000000000000000007fbbe68068a3aa7e479a1e51e792f4c2073b018f",
            "0x0000000000000000000000007fbbe68068a3aa7e479a1e51e792f4c2073b018f"
          ],
          "data": "0x",
          "blockHash": "0x6e6d514c8cdb96879278dfc7d9b3ab3721862686a078ddc9de385eb93309955f",
          "blockNumber": "0x28ece0a",
          "transactionHash": "0x95f08050f03f9f912463fec4c4bcd2319ba5d9472f91b07e8ef7aaa5f2ced5ca",
          "transactionIndex": "0x0",
          "logIndex": "0x0",
          "removed": false
        }
      ],
      "logsBloom": "0x00000000000000000000000000000000000000000000000000000000000000000000000000000000000000000040000000000000000000000000000000000000000000001000000000000000000000000000000000000000000000000040000000000000000000000000000000000000000000000000000000000004000000000000000000000000000000400000000000000000000000000000000000000000000000000000000000000000000000000000000000000000000000000000000000000000000000000002000000000000000004400000000000000000000000000000000000000000000001000000001000000040000000000000000000000020",
      "type": "0x2",
      "transactionHash": "0x95f08050f03f9f912463fec4c4bcd2319ba5d9472f91b07e8ef7aaa5f2ced5ca",
      "transactionIndex": "0x0",
      "blockHash": "0x6e6d514c8cdb96879278dfc7d9b3ab3721862686a078ddc9de385eb93309955f",
      "blockNumber": "0x28ece0a",
      "gasUsed": "0x21648",
      "effectiveGasPrice": "0x2",
      "blobGasUsed": "0x0",
      "from": "0x7fbbe68068a3aa7e479a1e51e792f4c2073b018f",
      "to": "0x8998151a1ee905efd20189a89a6910c4a0d2decb",
      "contractAddress": null
    },
    {
      "status": "0x1",
      "cumulativeGasUsed": "0x854a",
      "logs": [
        {
          "address": "0x8998151a1ee905efd20189a89a6910c4a0d2decb",
          "topics": [
            "0xb41b343a3283a10d6ef47634e31fa021d16241a70d5cb1163db6a4d4ddd973b5",
            "0x1d4573922485e3132e025001d8626244c936ad6406cb7bbd6660fa3b0d14334c",
            "0x0000000000000000000000007fbbe68068a3aa7e479a1e51e792f4c2073b018f"
          ],
          "data": "0x",
          "blockHash": "0xe91b9affb76de1cdde8c24ac0eea74e8a351f7d3b34dac8081724e64d1711e72",
          "blockNumber": "0x28ece0b",
          "transactionHash": "0x8a0b12f661a12a774faf6afe70ae72f70d0708dc9d9f195cbdf470d75ec75cd2",
          "transactionIndex": "0x0",
          "logIndex": "0x0",
          "removed": false
        }
      ],
      "logsBloom": "0x00000000000000000000000000000000000040000000000000000000000000000000000000000000000000000000000000080000000000000000000000000000000000001000000000000000000000000000000080000000000000000040000000000000000000000000000000000000000000000000000000000000000000000000000000000000000000000000000000000000000000200000000000000000000000000000000000000000000000000000000000000000000000000000000000000000000000000002000000000000000004400000000000000000000000000000000000000000000000000020000000000000000000000000000010000020",
      "type": "0x2",
      "transactionHash": "0x8a0b12f661a12a774faf6afe70ae72f70d0708dc9d9f195cbdf470d75ec75cd2",
      "transactionIndex": "0x0",
      "blockHash": "0xe91b9affb76de1cdde8c24ac0eea74e8a351f7d3b34dac8081724e64d1711e72",
      "blockNumber": "0x28ece0b",
      "gasUsed": "0x854a",
      "effectiveGasPrice": "0x2",
      "blobGasUsed": "0x0",
      "from": "0x7fbbe68068a3aa7e479a1e51e792f4c2073b018f",
      "to": "0x8998151a1ee905efd20189a89a6910c4a0d2decb",
      "contractAddress": null
    },
    {
      "status": "0x1",
      "cumulativeGasUsed": "0x21648",
      "logs": [
        {
          "address": "0x8998151a1ee905efd20189a89a6910c4a0d2decb",
          "topics": [
            "0x06d3f96554bf58a9bcb7c0ab9ad161c9324c2aa1fe5bba413e54ae79fb022623",
            "0x288e242691a4799efb83161e889fb50c0756b69bfe6b62db988fbeb41ab6befa",
            "0x0000000000000000000000007fbbe68068a3aa7e479a1e51e792f4c2073b018f",
            "0x0000000000000000000000007fbbe68068a3aa7e479a1e51e792f4c2073b018f"
          ],
          "data": "0x",
          "blockHash": "0xe00fc42698c846f3ff4d808de49d0223852f0ecea791b4025257c148d6042333",
          "blockNumber": "0x28ece0c",
          "transactionHash": "0xd0e0e0b9f237a425a9d643b7802964df779147f24a5aec173935da1d876420d4",
          "transactionIndex": "0x0",
          "logIndex": "0x0",
          "removed": false
        }
      ],
      "logsBloom": "0x00001000000000000000000000000000000000000000000000000000000000000000000000000000000000000040000000000000000000000000000000000000000000001000000000000000000000000000000000000000000000000040000000000000000000000000000000000000000000000000000000000000000000000000000000000000000000000000000000000000000000000000000000000000000000000000000000000000000000000000000000000000000000000000000000000000000000000002000000000000000004400000000000000000000000000000000000000000000001000080000000000040000000000000020000000020",
      "type": "0x2",
      "transactionHash": "0xd0e0e0b9f237a425a9d643b7802964df779147f24a5aec173935da1d876420d4",
      "transactionIndex": "0x0",
      "blockHash": "0xe00fc42698c846f3ff4d808de49d0223852f0ecea791b4025257c148d6042333",
      "blockNumber": "0x28ece0c",
      "gasUsed": "0x21648",
      "effectiveGasPrice": "0x2",
      "blobGasUsed": "0x0",
      "from": "0x7fbbe68068a3aa7e479a1e51e792f4c2073b018f",
      "to": "0x8998151a1ee905efd20189a89a6910c4a0d2decb",
      "contractAddress": null
    },
    {
      "status": "0x1",
      "cumulativeGasUsed": "0x2163c",
      "logs": [
        {
          "address": "0x8998151a1ee905efd20189a89a6910c4a0d2decb",
          "topics": [
            "0x06d3f96554bf58a9bcb7c0ab9ad161c9324c2aa1fe5bba413e54ae79fb022623",
            "0x9b718cf2bb3df8223e326f1000cda63b9a7c5b2895a1dac7e6f32afd8ca9bc70",
            "0x0000000000000000000000007fbbe68068a3aa7e479a1e51e792f4c2073b018f",
            "0x0000000000000000000000007fbbe68068a3aa7e479a1e51e792f4c2073b018f"
          ],
          "data": "0x",
          "blockHash": "0x72bc4164abe6e95798d4ac7b63be81fbb3eed0bf67bfd09771faf71b28d06dc3",
          "blockNumber": "0x28ece0e",
          "transactionHash": "0xcdb52a1be906b80ff94013ba2fe417c2a8118c29cbb21514f04c99a15d0bdd95",
          "transactionIndex": "0x0",
          "logIndex": "0x0",
          "removed": false
        }
      ],
      "logsBloom": "0x00000000000000000000000000000000000000000000000000000000000000000000000000000000000000000040000000000000000000000000000000000000000000001000000000000000000000000000000000200000000000000040000000000000000000000000000000000000000000000000000000000000000000000000000000000000000000000000000000000000000000000000000000000000000000000000000000000000000000000000000000000000000000000000000000000000000000000002000000000000000004400000800020000000000000000000000000000000000001000000000000000040000000000000000000000020",
      "type": "0x2",
      "transactionHash": "0xcdb52a1be906b80ff94013ba2fe417c2a8118c29cbb21514f04c99a15d0bdd95",
      "transactionIndex": "0x0",
      "blockHash": "0x72bc4164abe6e95798d4ac7b63be81fbb3eed0bf67bfd09771faf71b28d06dc3",
      "blockNumber": "0x28ece0e",
      "gasUsed": "0x2163c",
      "effectiveGasPrice": "0x2",
      "blobGasUsed": "0x0",
      "from": "0x7fbbe68068a3aa7e479a1e51e792f4c2073b018f",
      "to": "0x8998151a1ee905efd20189a89a6910c4a0d2decb",
      "contractAddress": null
    },
    {
      "status": "0x1",
      "cumulativeGasUsed": "0x854a",
      "logs": [
        {
          "address": "0x8998151a1ee905efd20189a89a6910c4a0d2decb",
          "topics": [
            "0xb41b343a3283a10d6ef47634e31fa021d16241a70d5cb1163db6a4d4ddd973b5",
            "0x5e5b75c527cfa9c118c5e75ef3992f32f2b5eb2521a6d5ad487678757e8f9842",
            "0x0000000000000000000000007fbbe68068a3aa7e479a1e51e792f4c2073b018f"
          ],
          "data": "0x",
          "blockHash": "0x5b3539d4d133783f26da2b8bcb9fcbee76358513a311e2c22c8a2562cdc49d46",
          "blockNumber": "0x28ece0f",
          "transactionHash": "0xa1f6aaa29b962f6c3b6f4a5bf2b027303326ba0e2764f6cd043fb544e1b07862",
          "transactionIndex": "0x0",
          "logIndex": "0x0",
          "removed": false
        }
      ],
      "logsBloom": "0x00000000000000000000000000000000000000000000000000000000000000000000000000000000000000000000000000080000000000000000000000000000000000001000000000000000000000000000000000000000000000000040000000000000000000000000000000000000000000000000000000000000000000000000000000000000000000000000000000000000000000000000000000000000000000000000000000000000000000000000000000000000000000000000000000000000000000000002000000000001000004400000000000000000000000000000000000000000000000000020000000000040000000000000000010000820",
      "type": "0x2",
      "transactionHash": "0xa1f6aaa29b962f6c3b6f4a5bf2b027303326ba0e2764f6cd043fb544e1b07862",
      "transactionIndex": "0x0",
      "blockHash": "0x5b3539d4d133783f26da2b8bcb9fcbee76358513a311e2c22c8a2562cdc49d46",
      "blockNumber": "0x28ece0f",
      "gasUsed": "0x854a",
      "effectiveGasPrice": "0x2",
      "blobGasUsed": "0x0",
      "from": "0x7fbbe68068a3aa7e479a1e51e792f4c2073b018f",
      "to": "0x8998151a1ee905efd20189a89a6910c4a0d2decb",
      "contractAddress": null
    },
    {
      "status": "0x1",
      "cumulativeGasUsed": "0x21648",
      "logs": [
        {
          "address": "0x8998151a1ee905efd20189a89a6910c4a0d2decb",
          "topics": [
            "0x06d3f96554bf58a9bcb7c0ab9ad161c9324c2aa1fe5bba413e54ae79fb022623",
            "0x6520458b8405896a2fd67205afc0b797a4d4feaacce10b73ac946167e91ea7f9",
            "0x0000000000000000000000007fbbe68068a3aa7e479a1e51e792f4c2073b018f",
            "0x0000000000000000000000007fbbe68068a3aa7e479a1e51e792f4c2073b018f"
          ],
          "data": "0x",
          "blockHash": "0x80aedabb1ba7d3490ea4184383a1b528ab560866385dc3124bad6c2964518908",
          "blockNumber": "0x28ece10",
          "transactionHash": "0x7e468ef03c0892a5a6b2b301030cec18ba2a8fdc5a6d41dbd2184c7144e2a6c9",
          "transactionIndex": "0x0",
          "logIndex": "0x0",
          "removed": false
        }
      ],
      "logsBloom": "0x00000000000000000000000000000000004800000000000000000000000000000000000000000000000000000040000000000000002000000000000000000000000000001000000000000000000000000000000000000000000000000040000000000000000000000000000000000000000000000000000000000000000000000000000000000000000000000000000000000000000000000000000000000000000000000000000000000000000000000000000000000000000000000000000000000000000000000002000000000000000004400000000000000000000000000000000000000000000001000000000000000040000000000000000000000020",
      "type": "0x2",
      "transactionHash": "0x7e468ef03c0892a5a6b2b301030cec18ba2a8fdc5a6d41dbd2184c7144e2a6c9",
      "transactionIndex": "0x0",
      "blockHash": "0x80aedabb1ba7d3490ea4184383a1b528ab560866385dc3124bad6c2964518908",
      "blockNumber": "0x28ece10",
      "gasUsed": "0x21648",
      "effectiveGasPrice": "0x2",
      "blobGasUsed": "0x0",
      "from": "0x7fbbe68068a3aa7e479a1e51e792f4c2073b018f",
      "to": "0x8998151a1ee905efd20189a89a6910c4a0d2decb",
      "contractAddress": null
    },
    {
      "status": "0x1",
      "cumulativeGasUsed": "0x21648",
      "logs": [
        {
          "address": "0x8998151a1ee905efd20189a89a6910c4a0d2decb",
          "topics": [
            "0x06d3f96554bf58a9bcb7c0ab9ad161c9324c2aa1fe5bba413e54ae79fb022623",
            "0xfc67d8b418c0013ffbf5220f2224cbe6f59b44ee70303e4c49f47d0c56cac3c0",
            "0x0000000000000000000000007fbbe68068a3aa7e479a1e51e792f4c2073b018f",
            "0x0000000000000000000000007fbbe68068a3aa7e479a1e51e792f4c2073b018f"
          ],
          "data": "0x",
          "blockHash": "0x914056e8da3043a7b6b4184d32050d39f3cd1b87fea93516f6405fca6123219c",
          "blockNumber": "0x28ece11",
          "transactionHash": "0xa20c14b1d79c290f50070d3b9b8a32a0406f6e6ff6400c5cb2fc7b8e88acdc6f",
          "transactionIndex": "0x0",
          "logIndex": "0x0",
          "removed": false
        }
      ],
      "logsBloom": "0x00000000000000000002000000000000000000000000000000000000000000000000000000000000000000000040000000000000000000000000000000000000000000001000000000000000000000000000000000000000000000000040000000000000000000000000000000000000000000000000000000000000000000000000000000000000000000000000000000000000000000000000000000000000000000000000000000000000000000000001000000000000000000000000000000000000000000000002000000000000000004400000000000000000000000000000008000000000000001000000000000000040000000000000000000000020",
      "type": "0x2",
      "transactionHash": "0xa20c14b1d79c290f50070d3b9b8a32a0406f6e6ff6400c5cb2fc7b8e88acdc6f",
      "transactionIndex": "0x0",
      "blockHash": "0x914056e8da3043a7b6b4184d32050d39f3cd1b87fea93516f6405fca6123219c",
      "blockNumber": "0x28ece11",
      "gasUsed": "0x21648",
      "effectiveGasPrice": "0x2",
      "blobGasUsed": "0x0",
      "from": "0x7fbbe68068a3aa7e479a1e51e792f4c2073b018f",
      "to": "0x8998151a1ee905efd20189a89a6910c4a0d2decb",
      "contractAddress": null
    },
    {
      "status": "0x1",
      "cumulativeGasUsed": "0x21648",
      "logs": [
        {
          "address": "0x8998151a1ee905efd20189a89a6910c4a0d2decb",
          "topics": [
            "0x06d3f96554bf58a9bcb7c0ab9ad161c9324c2aa1fe5bba413e54ae79fb022623",
            "0xb023076a4276031fd9688036ff88b8f86016e73e3b472287db01440b0a2d389c",
            "0x0000000000000000000000007fbbe68068a3aa7e479a1e51e792f4c2073b018f",
            "0x0000000000000000000000007fbbe68068a3aa7e479a1e51e792f4c2073b018f"
          ],
          "data": "0x",
          "blockHash": "0xeb1d70a91e570a81387b8bca90fb1c9ad44ca0c75665e2e245cfe1af9f9c8fb3",
          "blockNumber": "0x28ece12",
          "transactionHash": "0x60c2facfde3090030a54ca04e6ef55ad89ecf33b0ce2b10b38430b56d87f98b6",
          "transactionIndex": "0x0",
          "logIndex": "0x0",
          "removed": false
        }
      ],
      "logsBloom": "0x00000000000000000000000000000000000000000020000008000000000000000000000000000000000000000040010000000000000000000000000000000000000000001000000000000000000000000000000000000000000000000040000000000000000000000000000000000000000000000000000000000000000000000000000000000000000000000000000000000000000000000000000000000000000000000000000000000000000000000000000000000000000000000000000000000000000000000002000000000000000004400000000000000000000000000000000000000000000001000000000000000040000000000000000000000020",
      "type": "0x2",
      "transactionHash": "0x60c2facfde3090030a54ca04e6ef55ad89ecf33b0ce2b10b38430b56d87f98b6",
      "transactionIndex": "0x0",
      "blockHash": "0xeb1d70a91e570a81387b8bca90fb1c9ad44ca0c75665e2e245cfe1af9f9c8fb3",
      "blockNumber": "0x28ece12",
      "gasUsed": "0x21648",
      "effectiveGasPrice": "0x2",
      "blobGasUsed": "0x0",
      "from": "0x7fbbe68068a3aa7e479a1e51e792f4c2073b018f",
      "to": "0x8998151a1ee905efd20189a89a6910c4a0d2decb",
      "contractAddress": null
    },
    {
      "status": "0x1",
      "cumulativeGasUsed": "0x854a",
      "logs": [
        {
          "address": "0x8998151a1ee905efd20189a89a6910c4a0d2decb",
          "topics": [
            "0xb41b343a3283a10d6ef47634e31fa021d16241a70d5cb1163db6a4d4ddd973b5",
            "0xfc67d8b418c0013ffbf5220f2224cbe6f59b44ee70303e4c49f47d0c56cac3c0",
            "0x0000000000000000000000007fbbe68068a3aa7e479a1e51e792f4c2073b018f"
          ],
          "data": "0x",
          "blockHash": "0xf88ad52a50d56ed0aa9be7a205c97d75ea4ba9e392924905e93cf3d4f7bc77f1",
          "blockNumber": "0x28ece13",
          "transactionHash": "0x74653f902b0d6201159d3b57d4fa4f0b49b9f5ef25b8694e9b7055f27c1c8e1f",
          "transactionIndex": "0x0",
          "logIndex": "0x0",
          "removed": false
        }
      ],
      "logsBloom": "0x00000000000000000002000000000000000000000000000000000000000000000000000000000000000000000000000000080000000000000000000000000000000000001000000000000000000000000000000000000000000000000040000000000000000000000000000000000000000000000000000000000000000000000000000000000000000000000000000000000000000000000000000000000000000000000000000000000000000000000001000000000000000000000000000000000000000000000002000000000000000004400000000000000000000000000000008000000000000000000020000000000000000000000000000010000020",
      "type": "0x2",
      "transactionHash": "0x74653f902b0d6201159d3b57d4fa4f0b49b9f5ef25b8694e9b7055f27c1c8e1f",
      "transactionIndex": "0x0",
      "blockHash": "0xf88ad52a50d56ed0aa9be7a205c97d75ea4ba9e392924905e93cf3d4f7bc77f1",
      "blockNumber": "0x28ece13",
      "gasUsed": "0x854a",
      "effectiveGasPrice": "0x2",
      "blobGasUsed": "0x0",
      "from": "0x7fbbe68068a3aa7e479a1e51e792f4c2073b018f",
      "to": "0x8998151a1ee905efd20189a89a6910c4a0d2decb",
      "contractAddress": null
    }
  ],
  "libraries": [],
  "pending": [],
  "returns": {},
  "timestamp": 1772876538671,
  "chain": 9998453,
  "commit": "e58aa76"
}