{
  "transactions": [
    {
      "hash": "0xff383ff3c50959c291d37d8d16f23d2d35b8ed5ed74476bf4b8524d3138428d4",
      "transactionType": "CALL",
      "contractName": null,
      "contractAddress": "0x131d1ddf1ab7152fea467216674cfbe6b840c19c",
      "function": "registerPolicy(bytes32,uint256,uint256,uint256,address)",
      "arguments": [
        "0xf06f10897a758e93dd3167b166ec39eb59bbc2ddf4221f73dd1e504f0fed1451",
        "1704067200",
        "1735689600",
        "500000000",
        "0x7FBbE68068A3Aa7E479A1E51e792F4C2073b018f"
      ],
      "transaction": {
        "from": "0x7fbbe68068a3aa7e479a1e51e792f4c2073b018f",
        "to": "0x131d1ddf1ab7152fea467216674cfbe6b840c19c",
        "gas": "0x2e1f9",
        "value": "0x0",
        "input": "0x08c6afbef06f10897a758e93dd3167b166ec39eb59bbc2ddf4221f73dd1e504f0fed145100000000000000000000000000000000000000000000000000000000659200800000000000000000000000000000000000000000000000000000000067748580000000000000000000000000000000000000000000000000000000001dcd65000000000000000000000000007fbbe68068a3aa7e479a1e51e792f4c2073b018f",
        "nonce": "0x38",
        "chainId": "0x989075"
      },
      "additionalContracts": [],
      "isFixedGasLimit": false
    },
    {
      "hash": "0x128de850e5165e1112b40371c8edc8d4b925f81c30dc9ec219fc5e402d1ffe36",
      "transactionType": "CALL",
      "contractName": null,
      "contractAddress": "0x131d1ddf1ab7152fea467216674cfbe6b840c19c",
      "function": "payPremium(bytes32)",
      "arguments": [
        "0xf06f10897a758e93dd3167b166ec39eb59bbc2ddf4221f73dd1e504f0fed1451"
      ],
      "transaction": {
        "from": "0x7fbbe68068a3aa7e479a1e51e792f4c2073b018f",
        "to": "0x131d1ddf1ab7152fea467216674cfbe6b840c19c",
        "gas": "0xc2ef",
        "value": "0x2386f26fc10000",
        "input": "0xd8e2d2baf06f10897a758e93dd3167b166ec39eb59bbc2ddf4221f73dd1e504f0fed1451",
        "nonce": "0x39",
        "chainId": "0x989075"
      },
      "additionalContracts": [],
      "isFixedGasLimit": false
    },
    {
      "hash": "0xe8783e90c3189c0f63883c9111a26dee402652578c2e226f635c71a763e0ecbc",
      "transactionType": "CALL",
      "contractName": null,
      "contractAddress": "0x131d1ddf1ab7152fea467216674cfbe6b840c19c",
      "function": "registerPolicy(bytes32,uint256,uint256,uint256,address)",
      "arguments": [
        "0xf800bcfcdea64539d626aa384a9c60f4525f35415f9bd1bd939081d111df10d4",
        "1704067200",
        "1735689600",
        "500000000",
        "0x7FBbE68068A3Aa7E479A1E51e792F4C2073b018f"
      ],
      "transaction": {
        "from": "0x7fbbe68068a3aa7e479a1e51e792f4c2073b018f",
        "to": "0x131d1ddf1ab7152fea467216674cfbe6b840c19c",
        "gas": "0x2e1e8",
        "value": "0x0",
        "input": "0x08c6afbef800bcfcdea64539d626aa384a9c60f4525f35415f9bd1bd939081d111df10d400000000000000000000000000000000000000000000000000000000659200800000000000000000000000000000000000000000000000000000000067748580000000000000000000000000000000000000000000000000000000001dcd65000000000000000000000000007fbbe68068a3aa7e479a1e51e792f4c2073b018f",
        "nonce": "0x3a",
        "chainId": "0x989075"
      },
      "additionalContracts": [],
      "isFixedGasLimit": false
    },
    {
      "hash": "0xfc716ba4907a37bcd1ecfa8af2a56f591504742eac4a8814b459794ef2bb798a",
      "transactionType": "CALL",
      "contractName": null,
      "contractAddress": "0x131d1ddf1ab7152fea467216674cfbe6b840c19c",
      "function": "payPremium(bytes32)",
      "arguments": [
        "0xf800bcfcdea64539d626aa384a9c60f4525f35415f9bd1bd939081d111df10d4"
      ],
      "transaction": {
        "from": "0x7fbbe68068a3aa7e479a1e51e792f4c2073b018f",
        "to": "0x131d1ddf1ab7152fea467216674cfbe6b840c19c",
        "gas": "0xb809",
        "value": "0x2386f26fc10000",
        "input": "0xd8e2d2baf800bcfcdea64539d626aa384a9c60f4525f35415f9bd1bd939081d111df10d4",
        "nonce": "0x3b",
        "chainId": "0x989075"
      },
      "additionalContracts": [],
      "isFixedGasLimit": false
    },
    {
      "hash": "0x277afc68b81142695093b59b58899c1c328ae6506669973b8642534dc763b2e9",
      "transactionType": "CALL",
      "contractName": null,
      "contractAddress": "0x131d1ddf1ab7152fea467216674cfbe6b840c19c",
      "function": "registerPolicy(bytes32,uint256,uint256,uint256,address)",
      "arguments": [
        "0x2ba75679d4a3775fd2afd653132fca7d83dd07543595fb4600874d84f24fc638",
        "1704067200",
        "1735689600",
        "500000000",
        "0x7FBbE68068A3Aa7E479A1E51e792F4C2073b018f"
      ],
      "transaction": {
        "from": "0x7fbbe68068a3aa7e479a1e51e792f4c2073b018f",
        "to": "0x131d1ddf1ab7152fea467216674cfbe6b840c19c",
        "gas": "0x2e1e8",
        "value": "0x0",
        "input": "0x08c6afbe2ba75679d4a3775fd2afd653132fca7d83dd07543595fb4600874d84f24fc63800000000000000000000000000000000000000000000000000000000659200800000000000000000000000000000000000000000000000000000000067748580000000000000000000000000000000000000000000000000000000001dcd65000000000000000000000000007fbbe68068a3aa7e479a1e51e792f4c2073b018f",
        "nonce": "0x3c",
        "chainId": "0x989075"
      },
      "additionalContracts": [],
      "isFixedGasLimit": false
    },
    {
      "hash": "0x9d2828d105cd0d3649101f85e726312f2b901363f0b9b062e586fc1400aad142",
      "transactionType": "CALL",
      "contractName": null,
      "contractAddress": "0x131d1ddf1ab7152fea467216674cfbe6b840c19c",
      "function": "payPremium(bytes32)",
      "arguments": [
        "0x2ba75679d4a3775fd2afd653132fca7d83dd07543595fb4600874d84f24fc638"
      ],
      "transaction": {
        "from": "0x7fbbe68068a3aa7e479a1e51e792f4c2073b018f",
        "to": "0x131d1ddf1ab7152fea467216674cfbe6b840c19c",
        "gas": "0xb809",
        "value": "0x2386f26fc10000",
        "input": "0xd8e2d2ba2ba75679d4a3775fd2afd653132fca7d83dd07543595fb4600874d84f24fc638",
        "nonce": "0x3d",
        "chainId": "0x989075"
      },
      "additionalContracts": [],
      "isFixedGasLimit": false
    },
    {
      "hash": "0x2c3b30c16a6f64d79b5731de0912f067204cd86c655b820b928b97903390bdc2",
      "transactionType": "CALL",
      "contractName": null,
      "contractAddress": "0x131d1ddf1ab7152fea467216674cfbe6b840c19c",
      "function": "registerPolicy(bytes32,uint256,uint256,uint256,address)",
      "arguments": [
        "0xda4dfd6684ae1948c36267340eef5817f9a1e1fa0a11520c7713a9307f382e9f",
        "1704067200",
        "1735689600",
        "500000000",
        "0x7FBbE68068A3Aa7E479A1E51e792F4C2073b018f"
      ],
      "transaction": {
        "from": "0x7fbbe68068a3aa7e479a1e51e792f4c2073b018f",
        "to": "0x131d1ddf1ab7152fea467216674cfbe6b840c19c",
        "gas": "0x2e1f9",
        "value": "0x0",
        "input": "0x08c6afbeda4dfd6684ae1948c36267340eef5817f9a1e1fa0a11520c7713a9307f382e9f00000000000000000000000000000000000000000000000000000000659200800000000000000000000000000000000000000000000000000000000067748580000000000000000000000000000000000000000000000000000000001dcd65000000000000000000000000007fbbe68068a3aa7e479a1e51e792f4c2073b018f",
        "nonce": "0x3e",
        "chainId": "0x989075"
      },
      "additionalContracts": [],
      "isFixedGasLimit": false
    },
    {
      "hash": "0xe2b8405a80bbfbb3160b2954b7a26c2cfe68daff5290f6aadf2f4ab453065b35",
      "transactionType": "CALL",
      "contractName": null,
      "contractAddress": "0x131d1ddf1ab7152fea467216674cfbe6b840c19c",
      "function": "payPremium(bytes32)",
      "arguments": [
        "0xda4dfd6684ae1948c36267340eef5817f9a1e1fa0a11520c7713a9307f382e9f"
      ],
      "transaction": {
        "from": "0x7fbbe68068a3aa7e479a1e51e792f4c2073b018f",
        "to": "0x131d1ddf1ab7152fea467216674cfbe6b840c19c",
        "gas": "0xc2ef",
        "value": "0x2386f26fc10000",
        "input": "0xd8e2d2bada4dfd6684ae1948c36267340eef5817f9a1e1fa0a11520c7713a9307f382e9f",
        "nonce": "0x3f",
        "chainId": "0x989075"
      },
      "additionalContracts": [],
      "isFixedGasLimit": false
    }
  ],
  "receipts": [
    {
      "status": "0x1",
      "cumulativeGasUsed": "0x21648",
      "logs": [
        {
          "address": "0x131d1ddf1ab7152fea467216674cfbe6b840c19c",
          "topics": [
            "0x06d3f96554bf58a9bcb7c0ab9ad161c9324c2aa1fe5bba413e54ae79fb022623",
            "0xda4dfd6684ae1948c36267340eef5817f9a1e1fa0a11520c7713a9307f382e9f",
            "0x0000000000000000000000007fbbe68068a3aa7e479a1e51e792f4c2073b018f",
            "0x0000000000000000000000007fbbe68068a3aa7e479a1e51e792f4c2073b018f"
          ],
          "data": "0x",
          "blockHash": "0xefe01e600c2079e38b75decf643ef25d070e4900c3255445e89165deab69dc5f",
          "blockNumber": "0x28ecd8c",
          "transactionHash": "0xff383ff3c50959c291d37d8d16f23d2d35b8ed5ed74476bf4b8524d3138428d4",
          "transactionIndex": "0x0",
          "logIndex": "0x0",
          "removed": false
        }
      ],
      "logsBloom": "0x00000000000000000000000000000000004000000000000000000000000000000000000000000000000000000040000000000000000000000000000000000000000000000000000000000000000000000000000000000000000000000040000000000000000000000000000000000000000000000000000200000000000000000000000000000000000000000000000000000000000000000000000000000000000000000000000000000000000000900000000000000000000000004000000000000000000000000002000000000000000000000000000000000000000000000000000000000000000001000000000000000040000000100000000000000020",
      "type": "0x2",
      "transactionHash": "0xff383ff3c50959c291d37d8d16f23d2d35b8ed5ed74476bf4b8524d3138428d4",
      "transactionIndex": "0x0",
      "blockHash": "0xefe01e600c2079e38b75decf643ef25d070e4900c3255445e89165deab69dc5f",
      "blockNumber": "0x28ecd8c",
      "gasUsed": "0x21648",
      "effectiveGasPrice": "0x2",
      "blobGasUsed": "0x0",
      "from": "0x7fbbe68068a3aa7e479a1e51e792f4c2073b018f",
      "to": "0x131d1ddf1ab7152fea467216674cfbe6b840c19c",
      "contractAddress": null
    },
    {
      "status": "0x1",
      "cumulativeGasUsed": "0x21648",
      "logs": [
        {
          "address": "0x131d1ddf1ab7152fea467216674cfbe6b840c19c",
          "topics": [
            "0x06d3f96554bf58a9bcb7c0ab9ad161c9324c2aa1fe5bba413e54ae79fb022623",
            "0xf06f10897a758e93dd3167b166ec39eb59bbc2ddf4221f73dd1e504f0fed1451",
            "0x0000000000000000000000007fbbe68068a3aa7e479a1e51e792f4c2073b018f",
            "0x0000000000000000000000007fbbe68068a3aa7e479a1e51e792f4c2073b018f"
          ],
          "data": "0x",
          "blockHash": "0x703b55049a49890cd97048cb38f3fc8aeaf7055ccb613cb74cc4801e0d389595",
          "blockNumber": "0x28ecd8d",
          "transactionHash": "0xfc716ba4907a37bcd1ecfa8af2a56f591504742eac4a8814b459794ef2bb798a",
          "transactionIndex": "0x0",
          "logIndex": "0x0",
          "removed": false
        }
      ],
      "logsBloom": "0x00000000000000000000000000000000000000000000000000000000000000000000000000000000000000000040000000000000000000000000000000000000000000000000000000000000000000200000000000000000000000000040000000000000000000000000000000000000000000000000000000000000000000000000000000000000000000000000000000000000000000000000000000000000000000000000000000000000000000900000000000000000000000004000000000001000000000000002000000000000000000000000000000000000000000000000000000000000000001000000100000000040000000000000000000000020",
      "type": "0x2",
      "transactionHash": "0xfc716ba4907a37bcd1ecfa8af2a56f591504742eac4a8814b459794ef2bb798a",
      "transactionIndex": "0x0",
      "blockHash": "0x703b55049a49890cd97048cb38f3fc8aeaf7055ccb613cb74cc4801e0d389595",
      "blockNumber": "0x28ecd8d",
      "gasUsed": "0x21648",
      "effectiveGasPrice": "0x2",
      "blobGasUsed": "0x0",
      "from": "0x7fbbe68068a3aa7e479a1e51e792f4c2073b018f",
      "to": "0x131d1ddf1ab7152fea467216674cfbe6b840c19c",
      "contractAddress": null
    },
    {
      "status": "0x1",
      "cumulativeGasUsed": "0x2163c",
      "logs": [
        {
          "address": "0x131d1ddf1ab7152fea467216674cfbe6b840c19c",
          "topics": [
            "0x06d3f96554bf58a9bcb7c0ab9ad161c9324c2aa1fe5bba413e54ae79fb022623",
            "0xf800bcfcdea64539d626aa384a9c60f4525f35415f9bd1bd939081d111df10d4",
            "0x0000000000000000000000007fbbe68068a3aa7e479a1e51e792f4c2073b018f",
            "0x0000000000000000000000007fbbe68068a3aa7e479a1e51e792f4c2073b018f"
          ],
          "data": "0x",
          "blockHash": "0x060a5e07f9871fcd0bea0bb56dc44fd8525a041aff0f2f5b9a5a248fb909f376",
          "blockNumber": "0x28ecd8e",
          "transactionHash": "0x9d2828d105cd0d3649101f85e726312f2b901363f0b9b062e586fc1400aad142",
          "transactionIndex": "0x0",
          "logIndex": "0x0",
          "removed": false
        }
      ],
      "logsBloom": "0x00000000000000000000000000000000000000000000000000000000000000000000000000000000000000000040000000000040000000000000000000000000000000000000000000000000000000000000000000000000000000000040000000000000000000000000000000000000000000000000000000000000000000000000000000000000000000000000000000000000000000000000000000000000000000000000000000000000000000900000000000000000000000004000000000000000000000000002000000000000000000000000000000000010000000000000000000000000040001000000000000000040000000000000000000000020",
      "type": "0x2",
      "transactionHash": "0x9d2828d105cd0d3649101f85e726312f2b901363f0b9b062e586fc1400aad142",
      "transactionIndex": "0x0",
      "blockHash": "0x060a5e07f9871fcd0bea0bb56dc44fd8525a041aff0f2f5b9a5a248fb909f376",
      "blockNumber": "0x28ecd8e",
      "gasUsed": "0x2163c",
      "effectiveGasPrice": "0x2",
      "blobGasUsed": "0x0",
      "from": "0x7fbbe68068a3aa7e479a1e51e792f4c2073b018f",
      "to": "0x131d1ddf1ab7152fea467216674cfbe6b840c19c",
      "contractAddress": null
    },
    {
      "status": "0x1",
      "cumulativeGasUsed": "0x854a",
      "logs": [
        {
          "address": "0x131d1ddf1ab7152fea467216674cfbe6b840c19c",
          "topics": [
            "0xb41b343a3283a10d6ef47634e31fa021d16241a70d5cb1163db6a4d4ddd973b5",
            "0xda4dfd6684ae1948c36267340eef5817f9a1e1fa0a11520c7713a9307f382e9f",
            "0x0000000000000000000000007fbbe68068a3aa7e479a1e51e792f4c2073b018f"
          ],
          "data": "0x",
          "blockHash": "0xf2e8a4b22da1dc09d7a7a7914b5f1fefd4799eac3e807c5161f8d687f4c04dd1",
          "blockNumber": "0x28ecd8f",
          "transactionHash": "0x2c3b30c16a6f64d79b5731de0912f067204cd86c655b820b928b97903390bdc2",
          "transactionIndex": "0x0",
          "logIndex": "0x0",
          "removed": false
        }
      ],
      "logsBloom": "0x00000000000000000000000000000000004000000000000000000000000000000000000000000000000000000000000000080000000000000000000000000000000000000000000000000000000000000000000000000000000000000040000000000000000000000000000000000000000000000000000200000000000000000000000000000000000000000000000000000000000000000000000000000000000000000000000000000000000000900000000000000000000000004000000000000000000000000002000000000000000000000000000000000000000000000000000000000000000000000020000000000000000000100000000010000020",
      "type": "0x2",
      "transactionHash": "0x2c3b30c16a6f64d79b5731de0912f067204cd86c655b820b928b97903390bdc2",
      "transactionIndex": "0x0",
      "blockHash": "0xf2e8a4b22da1dc09d7a7a7914b5f1fefd4799eac3e807c5161f8d687f4c04dd1",
      "blockNumber": "0x28ecd8f",
      "gasUsed": "0x854a",
      "effectiveGasPrice": "0x2",
      "blobGasUsed": "0x0",
      "from": "0x7fbbe68068a3aa7e479a1e51e792f4c2073b018f",
      "to": "0x131d1ddf1ab7152fea467216674cfbe6b840c19c",
      "contractAddress": null
    },
    {
      "status": "0x1",
      "cumulativeGasUsed": "0x854a",
      "logs": [
        {
          "address": "0x131d1ddf1ab7152fea467216674cfbe6b840c19c",
          "topics": [
            "0xb41b343a3283a10d6ef47634e31fa021d16241a70d5cb1163db6a4d4ddd973b5",
            "0xf06f10897a758e93dd3167b166ec39eb59bbc2ddf4221f73dd1e504f0fed1451",
            "0x0000000000000000000000007fbbe68068a3aa7e479a1e51e792f4c2073b018f"
          ],
          "data": "0x",
          "blockHash": "0x05f966832e5f8192eed72a8405c28cedabe6f11f8bbdd620d162b3152079fabf",
          "blockNumber": "0x28ecd90",
          "transactionHash": "0xe2b8405a80bbfbb3160b2954b7a26c2cfe68daff5290f6aadf2f4ab453065b35",
          "transactionIndex": "0x0",
          "logIndex": "0x0",
          "removed": false
        }
      ],
      "logsBloom": "0x00000000000000000000000000000000000000000000000000000000000000000000000000000000000000000000000000080000000000000000000000000000000000000000000000000000000000200000000000000000000000000040000000000000000000000000000000000000000000000000000000000000000000000000000000000000000000000000000000000000000000000000000000000000000000000000000000000000000000900000000000000000000000004000000000001000000000000002000000000000000000000000000000000000000000000000000000000000000000000020100000000000000000000000000010000020",
      "type": "0x2",
      "transactionHash": "0xe2b8405a80bbfbb3160b2954b7a26c2cfe68daff5290f6aadf2f4ab453065b35",
      "transactionIndex": "0x0",
      "blockHash": "0x05f966832e5f8192eed72a8405c28cedabe6f11f8bbdd620d162b3152079fabf",
      "blockNumber": "0x28ecd90",
      "gasUsed": "0x854a",
      "effectiveGasPrice": "0x2",
      "blobGasUsed": "0x0",
      "from": "0x7fbbe68068a3aa7e479a1e51e792f4c2073b018f",
      "to": "0x131d1ddf1ab7152fea467216674cfbe6b840c19c",
      "contractAddress": null
    },
    {
      "status": "0x1",
      "cumulativeGasUsed": "0x2163c",
      "logs": [
        {
          "address": "0x131d1ddf1ab7152fea467216674cfbe6b840c19c",
          "topics": [
            "0x06d3f96554bf58a9bcb7c0ab9ad161c9324c2aa1fe5bba413e54ae79fb022623",
            "0x2ba75679d4a3775fd2afd653132fca7d83dd07543595fb4600874d84f24fc638",
            "0x0000000000000000000000007fbbe68068a3aa7e479a1e51e792f4c2073b018f",
            "0x0000000000000000000000007fbbe68068a3aa7e479a1e51e792f4c2073b018f"
          ],
          "data": "0x",
          "blockHash": "0x5668cc6e2c9b33d2e7e2b2660b3385bbfb012308e7dbef5c8472b18e77b0a801",
          "blockNumber": "0x28ecd92",
          "transactionHash": "0xe8783e90c3189c0f63883c9111a26dee402652578c2e226f635c71a763e0ecbc",
          "transactionIndex": "0x0",
          "logIndex": "0x0",
          "removed": false
        }
      ],
      "logsBloom": "0x00000000000000000000000000000000000000000000000000000000000000000000000000000000000000000040000000000000000000000000000000000000000000000000000000000000000000000000000000000000000000000040000000001000000800000000000000000000000000000000000000000000000000000000000000000000000000000000000000000000000000000000000000000000000000000000000000000000000000900000000000000000000000004000000000000000000000000002000000000000000000000000000000000000000000000100000000000000000001000000000000000040000000000000000000000020",
      "type": "0x2",
      "transactionHash": "0xe8783e90c3189c0f63883c9111a26dee402652578c2e226f635c71a763e0ecbc",
      "transactionIndex": "0x0",
      "blockHash": "0x5668cc6e2c9b33d2e7e2b2660b3385bbfb012308e7dbef5c8472b18e77b0a801",
      "blockNumber": "0x28ecd92",
      "gasUsed": "0x2163c",
      "effectiveGasPrice": "0x2",
      "blobGasUsed": "0x0",
      "from": "0x7fbbe68068a3aa7e479a1e51e792f4c2073b018f",
      "to": "0x131d1ddf1ab7152fea467216674cfbe6b840c19c",
      "contractAddress": null
    },
    {
      "status": "0x1",
      "cumulativeGasUsed": "0x853e",
      "logs": [
        {
          "address": "0x131d1ddf1ab7152fea467216674cfbe6b840c19c",
          "topics": [
            "0xb41b343a3283a10d6ef47634e31fa021d16241a70d5cb1163db6a4d4ddd973b5",
            "0xf800bcfcdea64539d626aa384a9c60f4525f35415f9bd1bd939081d111df10d4",
            "0x0000000000000000000000007fbbe68068a3aa7e479a1e51e792f4c2073b018f"
          ],
          "data": "0x",
          "blockHash": "0x15350e4199fb111f96e1a086f1cbd470ec7ed4456024bcfb4f798472f6105db7",
          "blockNumber": "0x28ecd93",
          "transactionHash": "0x277afc68b81142695093b59b58899c1c328ae6506669973b8642534dc763b2e9",
          "transactionIndex": "0x0",
          "logIndex": "0x0",
          "removed": false
        }
      ],
      "logsBloom": "0x00000000000000000000000000000000000000000000000000000000000000000000000000000000000000000000000000080040000000000000000000000000000000000000000000000000000000000000000000000000000000000040000000000000000000000000000000000000000000000000000000000000000000000000000000000000000000000000000000000000000000000000000000000000000000000000000000000000000000900000000000000000000000004000000000000000000000000002000000000000000000000000000000000010000000000000000000000000040000000020000000000000000000000000000010000020",
      "type": "0x2",
      "transactionHash": "0x277afc68b81142695093b59b58899c1c328ae6506669973b8642534dc763b2e9",
      "transactionIndex": "0x0",
      "blockHash": "0x15350e4199fb111f96e1a086f1cbd470ec7ed4456024bcfb4f798472f6105db7",
      "blockNumber": "0x28ecd93",
      "gasUsed": "0x853e",
      "effectiveGasPrice": "0x2",
      "blobGasUsed": "0x0",
      "from": "0x7fbbe68068a3aa7e479a1e51e792f4c2073b018f",
      "to": "0x131d1ddf1ab7152fea467216674cfbe6b840c19c",
      "contractAddress": null
    }
  ],
  "libraries": [],
  "pending": [],
  "returns": {},
  "timestamp": 1772637975796,
  "chain": 9998453,
  "commit": "7c6e0ea"
}